:020000040800F2
:1000000080050020A9010008071600084313000816
:1000100005160008B5020008571900080000000086
:100020000000000000000000000000000B160008A7
:10003000B702000800000000091600080D160008AD
:10004000C3010008C3010008C3010008C301000880
:10005000C3010008C3010008C3010008C301000870
:10006000C3010008C3010008C3010008C301000860
:10007000C3010008C3010008C3010008C301000850
:10008000C3010008C3010008C3010008000000000C
:10009000000000000000000000000000C301000894
:1000A000C3010008C3010008C3010008C301000820
:1000B000E9160008C3010008C3010008C3010008D5
:1000C000C3010008C3010008C3010008C301000800
:1000D000C3010008C3010008C301000800000000BC
:1000E000C3010008C3010008C301000800000000AC
:1000F000000000000000000000000000C301000834
:1001000000000000C3010008C3010008C30100088B
:1001100000000000000000000000000000000000DF
:10012000C3010008C3010008C3010008C30100089F
:10013000C3010008000000000000000000000000F3
:10014000000000000000000000000000C3010008E3
:10015000C3010008C3010008C3010008C30100086F
:10016000C3010008C30100080000000000000000F7
:10017000000000000000000000000000000000007F
:1001800000000000C30100080000000000000000A3
:10019000C3010008DFF80CD000F07AF800480047EF
:1001A000491A000880050020064880470648004795
:1001B000FEE7FEE7FEE7FEE7FEE7FEE7FEE7FEE717
:1001C000FEE7FEE795160008950100082DE9F05FAF
:1001D0000546002092469B468846064681464024B6
:1001E0001BE0284641464746224600F041F8534668
:1001F0005A46C01A914110D311461846224600F0C3
:1002000028F82D1A67EB01084F46224601200021ED
:1002100000F01FF817EB00094E41201EA4F1010465
:10022000DFDC484631462A464346BDE8F09FD2B25D
:1002300001E000F8012B491EFBD270470022F6E7CF
:1002400010B513460A4604461946FFF7F0FF20464C
:1002500010BD202A04DB203A00FA02F1002070478A
:100260009140C2F1200320FA03F3194390407047F4
:10027000202A04DB203A21FA02F00021704721FAFB
:1002800002F3D040C2F12002914008431946704762
:10029000064C074D06E0E06840F0010394E80700D3
:1002A00098471034AC42F6D3FFF778FFC41B000820
:1002B000E41B0008FEE770477047000070B5044675
:1002C00000F0E4F80546601C02D0044800780444BD
:1002D00000F0DCF8401BA042FAD370BD1C000020E7
:1002E0002DE9F84FDFF860B100224FF001084FF020
:1002F000030A4FF00F090BF1040E00BF0B6808FA58
:1003000002F42340A3426ED14D68022D01D0122D7C
:100310000ED1D50800EB850CDCF820505607F70EFF
:1003200009FA07F6B5430E69BE402E43CCF82060AB
:10033000066855000F790AFA05FC07F0030726EA5C
:100340000C06AF40374307604E68012E05D0022EE1
:1003500003D0112E01D0122E0ED18668CF6826EA66
:100360000C06AF40374387604668A6430C79C4F358
:100370000014944034434460C6688C6826EA0C0636
:10038000AC403443C4604C68E40056D52F4C25681B
:1003900045F480452560246822F0030504F4804478
:1003A00000942B4C2E19D6F8084895072F0F09FA00
:1003B00007F5AC43274DA84201D1002515E0264D95
:1003C000A84201D1012510E0244DA84201D1022507
:1003D0000BE0234DA84201D1032506E0214DA842A0
:1003E00002D1042501E028E00725BD402543C6F8D9
:1003F0000858DBF800405D464E689C43F60300D584
:100400001C432C60DEF8004075464E689C43B603E2
:1004100000D51C432C600C4D08352C684E689C435D
:10042000F60200D51C432C60074D0C352C684E6835
:100430009C43B60200D51C432C60521C102AFFF4CA
:100440005DAFBDE8F88F0000003C01404438024039
:100450000030014000000240000402400008024059
:10046000000C0240001002400069084000D001204A
:100470007047426931EA020200D109048161704784
:100480000AB1816170470904FBE7000001488068F8
:10049000704700001C00002070B504001BD094F8C9
:1004A0003D00002520B984F83C50204600F0AEF80D
:1004B000242084F83D002068016821F001010160DA
:1004C00000F00CFA4D4A6168914201D84C4900E0B5
:1004D0004C49884201D2012070BD4B492368B0FBD2
:1004E000F1F15E6826F03F060E435E60636893425A
:1004F00006D94FF4967359434FF47A73B1FBF3F175
:100500002368491C1E6A26F03F0631431962616860
:10051000914210D84900401EB0FBF1F2521CC2F3C8
:100520000B02042A01D2042022E0B0FBF1F0401CAF
:10053000C0F30B001CE0A368F3B301EBC10202EBB4
:100540000116421EB2FBF6F2521C42F48042120522
:1005500049D093B301EBC10202EB0111401EB0FB85
:10056000F1F0401CC0F30B0040F4804040F4004028
:100570002168CA694CF6FF739A431043C861D4E9F5
:100580000701084321680A6822F0C002104308608E
:10059000D4E9030101432068826848F2FF339A439B
:1005A00011438160D4E9050108432168CA6822F03B
:1005B000FF021043C86001E00EE016E02068016809
:1005C00041F0010101602564202084F83D0025638D
:1005D00084F83E50002070BD01EB4106421EB2FB84
:1005E000F6F2521CB3E70120C2E701EB4101401EC5
:1005F000B0FBF1F0401CC0F30B00B7E7A086010090
:1006000080841E0000093D0040420F0010B586B0F6
:10061000044614216846FFF711FE144920688842F9
:1006200021D11348016841F0020101600068694668
:1006300000F0020005904FF44070009012200190ED
:100640000120029003200390042004900948FFF742
:1006500047FE07481030016841F40011016000684E
:1006600000F40010059006B010BD000000540040DA
:100670003038024000040240024881680278114488
:10068000816070471C0000200B4810B5016841F4E0
:1006900000710160016841F480610160016841F40A
:1006A00080710160032000F06FF8002000F006F870
:1006B00000F024F8002010BD003C024070B50D4D44
:1006C00004464FF47A712878B1FBF0F00A490968C2
:1006D000B1FBF0F000F0D2FA48B9102C07D200229A
:1006E0002146501E00F030F800206C6070BD0120E3
:1006F00070BD00001C000020280000200A4808B53A
:10070000016841F480410160006800F4804000907D
:100710000548001F016841F080510160006800F049
:100720008050009008BD000044380240002809DBDA
:1007300000F01F02012191404009800000F1E020FB
:10074000C0F8001170470000F0B40E4B1B680C4657
:10075000C3F30223C3F10705042D00D90425191D95
:10076000072901D2002300E0DB1E012606FA05F16D
:10077000491E214099409E40761E16403143F0BCF0
:1007800001F0EAB80CED00E0064900F00702086845
:100790004FF6FF03184040EA0220034A1043086066
:1007A000704700000CED00E00000FA052DE9F0476D
:1007B0000E46050065D0DFF81481D8F80000F7B2C6
:1007C00000F00F00B04207D288F80070D8F800009F
:1007D00000F00F00B04254D128683D4C810712D57B
:1007E000400703D5206840F4E050206028780007D7
:1007F00003D5206840F4604020602068A96820F09C
:10080000F000084320602878C0072DD03049686880
:100810000839012812D0022813D0032811D0096802
:10082000890700292DDA216821F0030101432160A5
:10083000FFF72CFE814641F2883A0EE009688903F1
:10084000EFE709688901ECE7FFF720FEA0EB09015B
:10085000514502D90320BDE8F0872068696800F09F
:100860000C00B0EB810FEFD1D8F80010404601F03A
:100870000F01B14207D90770006800F00F00B042C5
:1008800001D00120E7E72878400705D52068E9680E
:1008900020F4E050084320602878000706D520683F
:1008A000296920F4604040EAC100206000F026F889
:1008B0002168084AC1F30311515CC8400649086029
:1008C0000020FFF7FBFE0020C5E70000003C0240CF
:1008D00008380240AC1B00082800002004480549E5
:1008E00000680968044AC1F38221515CC84070471E
:1008F0002800002008380240BC1B0008154810B52D
:10090000006810F00C02144813D01449042A0FD0C8
:10091000082A0ED10F4C241F2268236802F03F02E0
:100920005B0207D52068C0F38810A0FB010106E038
:10093000084610BD2168C1F38811A1FB0001002306
:10094000FFF744FC2168C1F30141491C4900B0FB99
:10095000F1F010BD083802400024F40040787D0119
:100960002DE9F84F050076D02878DFF8F8B2BE4CB4
:10097000C00749D0DBF800105846C1F381010129B6
:1009800008D00068C0F3810002280AD1201D006849
:10099000400206D52068800336D568680028E2D07A
:1009A00032E06868B0F5803F10D0B0F5A02F206825
:1009B00010D020F480302060206820F48020206057
:1009C0006868A0B1FFF762FD06460CE0206840F4BD
:1009D0008030F4E740F480202060F7E7FFF756FD11
:1009E000801B642873D820688003F7D50CE0FFF7DC
:1009F0004DFD064605E000BFFFF748FD801B64285B
:100A0000F0D820688003F7D42878DFF86082800768
:100A10004FF000093ED5DBF80010584611F00C0FDE
:100A200009D00068C0F3810002280BD18D48001F57
:100A30000068400206D42068800715D5E8680128C0
:100A400009D111E0E868B8B10120C8F80000FFF74B
:100A50001DFD064605E002E1FFF718FD801B022898
:100A6000C0D820688007F7D52068296920F0F800F1
:100A700040EAC10020600DE0C8F80090FFF706FDD5
:100A8000064604E0FFF702FD801B02281FD82068FD
:100A90008007F7D42878000722D5724E7448696918
:100AA0006C3671B101210160FFF7F0FC074604E0EC
:100AB000FFF7ECFCC01B022809D830688007F7D587
:100AC0000EE0C0F80090FFF7E1FC074605E083E088
:100AD000FFF7DCFCC01B02287ED830688007F7D403
:100AE0002878400768D5DFF87CA100270AF1380A8A
:100AF000DAF80000C0000BD4DAF8001041F08051A1
:100B0000CAF80010DAF80000012700F080500090C9
:100B1000584E3068C00510D4306840F480703060A2
:100B2000FFF7B4FC009005E0FFF7B0FC0099401A15
:100B3000022851D83068C005F6D54A4EA8686836F4
:100B400001280FD00528306810D020F00100306057
:100B5000306820F004003060A868B8B1FFF796FC58
:100B600000900FE0306840F00100F4E740F004002E
:100B70003060F7E7FFF78AFC0099411A41F28830AC
:100B8000814264D830688007F4D50EE0FFF77EFC20
:100B9000009007E0FFF77AFC0099411A41F2883093
:100BA000814254D830688007F4D42FB1DAF80010AD
:100BB00021F08051CAF80010A869C0B3DBF800101A
:100BC000C1F3810102294AD00228484607D0C8F85B
:100BD0006000FFF75BFC00E039E005463AE047467D
:100BE000C8F86000FFF752FC064604E0FFF74EFC31
:100BF000801B02282BD820688001F7D4D5E9070193
:100C00000843A96A1C4A490802EB01416A6A41EAA1
:100C10008211084395F82C1040EA01611148001F29
:100C2000016001203866FFF731FC054605E014E05D
:100C3000FFF72CFC401B022809D820688001F7D55B
:100C40000BE000BFFFF722FC401B022802D9032063
:100C5000BDE8F88F20688001F4D40020F8E7012077
:100C6000F6E7000008380240003802400000474222
:100C7000800E4742007000400000FFFF10B5401E8C
:100C8000B0F1807F01D3012010BD4FF0E0246061FE
:100C90000F21601700F060FE0020A0610720206196
:100CA000002010BD7047704770B590F83C20012AB5
:100CB00019D0012400F83C4F0222427050F83C3C0D
:100CC0005A689D6822F070060A684968324325F028
:100CD000800529435A6050F83C2C916044700021F3
:100CE0000170084670BD022070BD10B5040003D02D
:100CF00094F83D0010B107E0012010BD002084F8F9
:100D00003C00204600F00CF8022084F83D00211D34
:100D1000206800F0EFFC012084F83D00002010BDA9
:100D200008B50068B0F1804F12D10A48016841F05F
:100D3000010101600068002200F0010000901146EE
:100D40001C20FFF701FDBDE808401C20FFF7EEBCAA
:100D500008BD0000403802400168CA6842F0010244
:100D6000CA600068816801F00701062903D00168A4
:100D700041F0010101600020704770B5044690F811
:100D80003C00012817D0012584F83C50022084F84B
:100D90003D002068826822F0770222F47F42826060
:100DA0000868502830D00DDC20284DD005DC98B3E1
:100DB00010283BD148E0022070BD302844D04028A4
:100DC00034D139E0602828D0702806D0B0F5805F93
:100DD0002CD0B0F5005F29D10AE0CB68D1E9012120
:100DE000206800F0E0FC2068816841F0770109E0AC
:100DF000CB68D1E90121206800F0D5FC206881682A
:100E000041F48041816011E0CA684968206800F0BF
:100E10007FFD5021206807E016E0CA684968206815
:100E200000F087FD6021206800F0C7FC84F83D5089
:100E3000002084F83C0070BDCA684968206800F052
:100E400067FD40212068EFE7226801461046EBE786
:100E50002DE9F0410D46040003D094F83D0018B18F
:100E600008E00120BDE8F081002084F83C00204625
:100E700000F03AF8022084F83D002068816844F2CE
:100E8000070291438160211D206800F033FC226835
:100E900090689169166A2B68AF69034340F203308A
:100EA000814341EA0721A868EF6908434FF6FC41F6
:100EB0008843E96840EA0720014328692F6A000156
:100EC00040EA0730084369686D6926F0AA0646EAD9
:100ED0000515294393602268906120680162012012
:100EE00084F83D000020BDE7F0B587B0044614212A
:100EF0006846FFF7A3F921481F4F26681F4910389D
:100F0000C025022201230324BE4217D10E6846F0F9
:100F100002060E60096801F002010591016841F0C6
:100F200001010160006801AE009586E81C0000F038
:100F30000100CDE904206946114819E0114FBE4275
:100F400018D10E6846F004060E60096801F004012D
:100F50000591016841F002010160006801AE009551
:100F600086E81C0000F00200CDE90420694606482E
:100F7000FFF7B6F907B0F0BD00040040403802406A
:100F800000000240000800400004024010B5044682
:100F9000006891B1042904D00122002100F0F6FB81
:100FA000206801225FF0040100F0F0FB2068016876
:100FB00041F001010160002010BD01220021F3E792
:100FC000704770B50446006801694FF00005C943D9
:100FD000890715D4C168C943890711D4E91E016185
:100FE00001202077206880698007204602D0FFF723
:100FF000E7FF04E000F0C2F8204600F057F925773B
:1010000020680169C943490717D4C168C943490722
:1010100013D46FF0040101610220207720688069F9
:1010200010F4407F204602D0FFF7CAFF04E000F032
:10103000A5F8204600F03AF9257720680169C943F0
:10104000090716D4C168C943090712D46FF0080113
:101050000161042020772068C0698007204602D003
:10106000FFF7AEFF04E000F089F8204600F01EF91B
:10107000257720680169C943C90617D4C168C943E7
:10108000C90613D46FF01001016108202077206891
:10109000C06910F4407F204602D0FFF791FF04E0C2
:1010A00000F06CF8204600F001F92577206801690E
:1010B000C943C90708D1C168C943C90704D1891EFA
:1010C0000161204600F010F920680169C943090652
:1010D00009D4C168C943090605D46FF080010161D4
:1010E0002046FFF7DFFD20680169C943490609D49E
:1010F000C168C943490605D46FF04001016120462B
:1011000000F01EF920680169C94389060BD4C16843
:10111000C943890607D46FF0200101612046BDE86C
:101120007040FFF7C0BD70BD10B586B004461421F5
:101130006846FFF783F80E492068884215D10D48AC
:101140000021026842F001020260006800F0010024
:1011500005900C2000900220CDE901010320CDE98B
:10116000031069460448FFF7BBF806B010BD000045
:10117000004001403038024000000240704770B526
:10118000044690F83C000D4601280DD0012684F855
:101190003C60022084F83D0042B1042A18D0082A9D
:1011A0002AD00C2A4DD139E0022070BD206800F011
:1011B0000DFB2068816941F0080181612068816927
:1011C00021F004018161206881692A69114311E0DD
:1011D000206800F023FB2068816941F4006181618F
:1011E0002068816921F480618161206881692A69B0
:1011F00041EA0221816124E0206800F03BFB206885
:10120000C16941F00801C1612068C16921F0040190
:10121000C1612068C1692A69114311E0206800F0AA
:1012200055FB2068C16941F40061C1612068C16952
:1012300021F48061C1612068C1692A6941EA022103
:10124000C16184F83D60002084F83C0070BD10B599
:10125000040003D094F83D0010B107E0012010BD58
:10126000002084F83C00204600F00CF8022084F8AE
:101270003D00211D206800F03DFA012084F83D006A
:10128000002010BD08B500680649884208D106480C
:10129000016841F480310160006800F48030009002
:1012A00008BD000000400140443802407047000083
:1012B00010B504460068012200F068FA0949206868
:1012C000884203D1416C41F4004141642068816847
:1012D00001F00701062903D0016841F00101016016
:1012E000002010BD0000014010B504464FF400512D
:1012F0001048FFF7BEF821680F48B1F1804F0BD1BD
:101300000178491C01700D490968496AC1800B497F
:1013100040310968496A41810178C82905D3002113
:101320000170C188018141898181BDE8104000F0D0
:1013300033BB0000000802400C000020C000002069
:101340007047FEE72DE9F04387B014216846FEF7A9
:1013500075FF2F480024016841F004010160016815
:1013600001F004010591016841F08001016001680C
:1013700001F080010591016841F0010101600168FF
:1013800001F001010591016841F00201016000686E
:10139000DFF8808000F002004FF400550590002235
:1013A00029464046FFF76CF80122DFF86C90960260
:1013B00031464846FFF764F84FF47047002239463B
:1013C0004846FFF75DF800950125CDE901546946CF
:1013D00040460394FEF784FFE8038DE83100694638
:1013E0004046FEF77DFF0320CDE90240CDE90065D0
:1013F00069464846FEF774FF0097CDE901546946F7
:1014000048460394FEF76CFF07B0BDE8F083000088
:101410003038024000080240000402400D4810B578
:101420000B4901600C49416000214FF4804281600A
:10143000C0E9031241618161C1610162FFF72CF8CB
:10144000002803D0BDE81040FEF736BF10BD0000F5
:10145000005400402C000020801A060010B586B011
:1014600000241648009401940294039404944FF0CD
:101470008041059401604AF20F41C0E9011409213D
:10148000C0E903148461FFF730FC08B1FEF714FFD4
:101490004FF48050009069460848FFF76EFC08B191
:1014A000FEF70AFF049404A904480594FFF7FCFB27
:1014B000002801D0FEF700FF06B010BD800000201C
:1014C00010B58CB024216846FEF7B8FE00241648FB
:1014D000099414490A94C0E900144FF6FF71C0E959
:1014E0000241046184610320009001AA02200121CD
:1014F00082E81300CDE90440CDE9061469460A48A4
:101500000894FFF7A5FC08B1FEF7D6FE099409A9D7
:1015100005480A94FFF7C8FB002801D0FEF7CCFE6F
:101520000CB010BD00040040C000002010B58CB00D
:1015300024216846FEF782FE0024164809941449C7
:101540000A94C0E900144FF6FF71C0E9024104613A
:1015500084610320CDE900040120CDE902040221C9
:10156000CDE90441CDE9060469460A480894FFF72D
:101570006FFC08B1FEF7A0FE099409A905480A947A
:10158000FFF792FB002801D0FEF796FE0CB010BDCD
:10159000000800400001002010B588B01C216846FA
:1015A000FEF74CFE16481549002401601421C0E9DD
:1015B000011449F63F41C0E903148461FFF747FE77
:1015C00008B1FEF779FE6020CDE900040294002204
:1015D00069460B480494FFF7D2FD08B1FEF76CFE94
:1015E000042269460648FFF7CAFD08B1FEF764FE0B
:1015F0000348FFF799FD08B010BD0000004001400E
:1016000040010020FEE7704770477047FFF734B88D
:1016100030B593B030216846FEF710FE14210CA8B7
:10162000FEF70CFE19480025016841F08051016069
:10163000006800F0805011901548016821F4404185
:1016400041F4004101600068022400F44040119020
:1016500001200090000401908001CDE9064019208E
:101660000890A820CDE9090404200B906846FFF7F4
:1016700077F90CA90F2081E83100E002CDE90F05D0
:1016800002210CA8FFF792F813B030BD4038024099
:10169000007000401048016841F4700101600F487B
:1016A000016841F0010101600C4A0021083211601B
:1016B00002680B4B1A400260031D0A4A1A60026856
:1016C00022F48022026005480C300160024958066D
:1016D000803908607047000088ED00E00038024063
:1016E000FFFFF6FE103000240148FFF76ABC00003F
:1016F00080000020F0B502681D4B1E4C9F031E4D5C
:101700001E4E984207D0B84205D0A04203D0A8424E
:1017100001D0B04204D122F0700C4A6842EA0C02B7
:10172000984210D0B8420ED0A0420CD0A8420AD0A5
:10173000B04208D0124CA04205D0124CA04202D0B8
:10174000114CA04203D122F44074CA6822434C6970
:1017500022F08002224302608A68C2620A688262C2
:10176000984201D10969016301214161F0BD000086
:10177000000001400004004000080040000C004050
:1017800000400140004401400048014010B501F014
:101790001F030121046A99408C430462016A9A4044
:1017A0001143016210BD10B5846842EA032224F49B
:1017B0007F440A432243826010BD826822F0700297
:1017C0000A4342F0070181607047000030B5026AA9
:1017D00022F001020262026A4368846924F0730500
:1017E0000C682C4322F002058A682A430A4DA8425D
:1017F0000BD122F00805CA6823F440732A434D69CF
:1018000022F004021D438B692B43436084614968C5
:101810004163026230BD00000000014030B5026A41
:1018200022F010020262026A436884690D6824F49F
:10183000E64444EA05248D6822F0200242EA0512BB
:101840000B4DA8420ED1CD6822F0800242EA05126B
:101850004D6923F4406343EA85038D6922F0400219
:1018600043EA85034360846149688163026230BD55
:101870000000014030B5026A22F480720262036AFD
:101880004268C46923F4007324F073050C682C4388
:101890008D6843EA05230C4DA8420ED1CD6823F490
:1018A000006343EA05234D6922F4405242EA0512DF
:1018B0008D6923F4806342EA05124260C46149687D
:1018C000C163036230BD00000000014030B5026A10
:1018D00022F480520262046A4268C3690D6823F4EC
:1018E000E64343EA05238D6824F4005444EA0534B2
:1018F000064DA84204D14D6922F4804242EA851285
:101900004260C36149680164046230BD0000014067
:1019100010B5036A046A24F001040462846924F0A7
:10192000F00444EA021423F00A020A4384610262CA
:1019300010BD10B5036A23F0100303628369046AC3
:1019400023F4704343EA023224F0A00343EA011176
:101950008261016210BDFEE70907090E002804DB61
:1019600000F1E02080F80014704700F00F0000F153
:10197000E02080F8141D704702E008C8121F08C15B
:10198000002AFAD170477047002001E001C1121F00
:10199000002AFBD17047000030B52648B0F9063068
:1019A000254A002143F69824002B08DAB0F90830C4
:1019B000A34204DD43885B1C438013685962B0F97D
:1019C0000A501D4B4033002D08DAB0F90C50A542E7
:1019D00004DD8488641C84801C686162B0F9065050
:1019E000164C002D08DDB0F90850A54204DA4588F0
:1019F0006D1E458012685162B0F90A20002A08DD88
:101A0000B0F90C20A24204DA8288521E82801A6841
:101A10005162B0F90610B0F9022001EBC231084A58
:101A20001160B0F90A10B0F9040001EBC0300549AB
:101A3000086030BD0C000020C000002068C5FFFF1A
:101A40000800002004000020FEF71EFEFFF7E0FD66
:101A5000FFF778FCFFF7A0FDFFF7E0FCFFF7FEFCC7
:101A6000FFF72EFDFFF762FD2648FFF775F9042109
:101A70002548FFF78BFA04212448FFF787FA002155
:101A80002348FFF715FC04212148FFF711FC49F614
:101A90004045204C4CF250374FF4004B41F288390E
:101AA0004FF0000A4FF48066DFF86C8003E02946AF
:101AB000002000F035F86068B842F8DB00210846E5
:101AC00000F02EF859461548FEF7CEFC0028F2D15A
:101AD000218801EB090080B22080A84201D9A4F836
:101AE00000A0002231464046FEF7CAFC6420FEF703
:101AF000E5FB012231464046FEF7C2FC6420FEF7BA
:101B0000DDFBD8E780000020C0000020000100209D
:101B100040010020000000200004024000080240B4
:101B20002DE9F0410D001F4C1F4F06464FF40051A8
:101B30004FF480580CD500222046FEF7A1FC01226C
:101B400041462046FEF79CFC3968684248630AE03B
:101B500001222046FEF794FC002241462046FEF773
:101B60008FFC386845634FF400414D10002E0DDAAC
:101B700000222046FEF784FC012229462046FEF77B
:101B80007FFC396870428863BDE8F08101222046FD
:101B9000FEF776FC002229462046FEF771FC3868E5
:101BA0008663F1E7000402404001002000000000CD
:101BB00000000000010203040607080900000000FD
:101BC00001020304E41B0008000000202C000000B8
:101BD00078190008101C00082C0000205405000093
:101BE000881900080000000000000000000000004C
:101BF00000000000000000000000000000000000E5
:101C00000100000010000000000000000024F400AB
:040000050800019559
:00000001FF
