:020000040800F2
:10000000C008002035020008C7220008591A00085D
:10001000C52200082B040008C528000800000000C5
:10002000000000000000000000000000CB220008DB
:100030002D04000800000000C9220008CD2200089D
:100040004F0200084F0200084F0200084F0200084C
:100050004F0200084F0200084F0200084F0200083C
:100060004F0200084F0200084F0200084F0200082C
:100070004F0200084F0200084F0200084F0200081C
:100080004F0200084F0200084F0200080000000065
:100090000000000000000000000000004F02000807
:1000A0004F0200084F0200084F0200084F020008EC
:1000B000A92300084F0200084F0200084F02000861
:1000C0004F0200084F0200084F0200084F020008CC
:1000D0004F0200084F0200084F0200080000000015
:1000E0004F0200084F0200084F0200080000000005
:1000F0000000000000000000000000004F020008A7
:10010000000000004F0200084F0200084F020008E4
:1001100000000000000000000000000000000000DF
:100120004F0200084F0200084F0200084F0200086B
:100130004F02000800000000000000000000000066
:100140000000000000000000000000004F02000856
:100150004F0200084F0200084F0200084F0200083B
:100160004F0200084F0200080000000000000000DD
:10017000000000000000000000000000000000007F
:10018000000000004F020008000000000000000016
:100190004F02000800F002F800F03CF80AA090E8D6
:1001A000000C82448344AAF10107DA4501D100F032
:1001B00031F8AFF2090EBAE80F0013F0010F18BFC3
:1001C000FB1A43F0010318477C3200009C32000008
:1001D000103A24BF78C878C1FAD8520724BF30C873
:1001E00030C144BF04680C60704700000023002445
:1001F00000250026103A28BF78C1FBD8520728BF37
:1002000030C148BF0B6070471FB503F005F91FBD33
:1002100010B510BD00F0D4F81146FFF7F5FF02F05D
:100220000FFC00F0F2F803B4FFF7F2FF03BC00F09C
:10023000F5F800000948804709480047FEE7FEE757
:10024000FEE7FEE7FEE7FEE7FEE7FEE7FEE7FEE786
:1002500004480549054A064B70470000552300082D
:1002600095010008C0020020C0080020C004002042
:10027000C004002053EA020C00F069802DE9F04B25
:100280004FF00006002B1FBFB3FA83F503FA05F405
:1002900024FA05F65E4012BF1643B2FA82F502FA5E
:1002A00005F4C5F120051EBF22FA05FC44EA0C0442
:1002B000203556EA044C4FEA144418BF641C4FF032
:1002C00000084FF00009904271EB030C39D300296C
:1002D00019BFB1FA81F701FA07F6B0FA80F700FA10
:1002E00007F6C7F120071EBF20FA07FC46EA0C06F6
:1002F0002037B6FBF4FCA7EB0507103F07F01F0BF8
:10030000CBF120060CFA0BFB2CFA06F644BFB346E1
:100310000026202FA4BF5E464FF0000B5BEA060CC0
:1003200008BF4FF0010B19EB0B09ABFB027C48EB4C
:100330000608C01B06FB02CC0BFB03CC71EB0C01C7
:10034000C1E70B46024641464846BDE8F08B13B56F
:100350004FF000004FF00001AFF30080BDE81C40FB
:1003600070474FF0000200B5134694469646203978
:1003700022BFA0E80C50A0E80C50B1F12001BFF45E
:10038000F7AF090728BFA0E80C5048BF0CC05DF8C4
:1003900004EB890028BF40F8042B08BF704748BF12
:1003A00020F8022B11F0804F18BF00F8012B704786
:1003B0007047704770470000004870476002002097
:1003C0007546FFF7F9FFAE4605006946534620F033
:1003D0000700854618B020B5FFF73AFFBDE820407A
:1003E0004FF000064FF000074FF000084FF0000BF1
:1003F00021F00701AC46ACE8C009ACE8C009ACE8A4
:10040000C009ACE8C0098D46704710B50446AFF38B
:1004100000802046BDE81040FFF705BF01491820C5
:10042000ABBEFEE7260002007047FEE7704770474C
:1004300070B5044600F0D8F80546601C02D00448A8
:100440000078044400F0D0F8401BA042FAD370BDFD
:10045000440000202DE9F84FDFF860B100224FF092
:1004600001084FF0030A4FF00F090BF1040E00BF13
:100470000B6808FA02F42340A3426ED14D68022DA6
:1004800001D0122D0ED1D50800EB850CDCF82050E0
:100490005607F70E09FA07F6B5430E69BE402E431C
:1004A000CCF82060066855000F790AFA05FC07F0C1
:1004B000030726EA0C06AF40374307604E68012E5B
:1004C00005D0022E03D0112E01D0122E0ED1866837
:1004D000CF6826EA0C06AF40374387604668A643DC
:1004E0000C79C4F30014944034434460C6688C68AB
:1004F00026EA0C06AC403443C4604C68E40056D590
:100500002F4C256845F480452560246822F00305BA
:1005100004F4804400942B4C2E19D6F80848950713
:100520002F0F09FA07F5AC43274DA84201D100254A
:1005300015E0264DA84201D1012510E0244DA84226
:1005400001D102250BE0234DA84201D1032506E08D
:10055000214DA84202D1042501E028E00725BD4035
:100560002543C6F80858DBF800405D464E689C43BA
:10057000F60300D51C432C60DEF8004075464E683B
:100580009C43B60300D51C432C600C4D08352C68E9
:100590004E689C43F60200D51C432C60074D0C3579
:1005A0002C684E689C43B60200D51C432C60521C3C
:1005B000102AFFF45DAFBDE8F88F0000003C014059
:1005C0004438024000300140000002400004024074
:1005D00000080240000C0240001002400AB1816194
:1005E00070470904FBE7000001488068704700007D
:1005F0004400002070B504001BD094F83D00002595
:1006000020B984F83C50204600F042FA242084F8B7
:100610003D002068016821F00101016000F0A0FBAD
:100620004D4A6168914201D84C4900E04C498842EA
:1006300001D2012070BD4B492368B0FBF1F15E6827
:1006400026F03F060E435E606368934206D94FF47E
:10065000967359434FF47A73B1FBF3F12368491C45
:100660001E6A26F03F06314319626168914210D834
:100670004900401EB0FBF1F2521CC2F30B02042AE7
:1006800001D2042022E0B0FBF1F0401CC0F30B00CB
:100690001CE0A368F3B301EBC10202EB0116421E9A
:1006A000B2FBF6F2521C42F48042120549D093B3D9
:1006B00001EBC10202EB0111401EB0FBF1F0401C46
:1006C000C0F30B0040F4804040F400402168CA6948
:1006D0004CF6FF739A431043C861D4E907010843FD
:1006E00021680A6822F0C00210430860D4E90301BF
:1006F00001432068826848F2FF339A4311438160C6
:10070000D4E9050108432168CA6822F0FF021043BA
:10071000C86001E00EE016E02068016841F00101C8
:1007200001602564202084F83D00256384F83E5054
:10073000002070BD01EB4106421EB2FBF6F2521CD6
:10074000B3E70120C2E701EB4101401EB0FBF1F02D
:10075000401CC0F30B00B7E7A086010080841E0098
:1007600000093D0040420F002DE9FF4F83B09A463B
:10077000DDE9119793460446DDF84080FFF734FF2A
:10078000054694F83D00202870D1192301227149B3
:100790002046009501F05CFA0028F5D194F83C0061
:1007A000012863D0012084F83C0020680168C90753
:1007B00003D1016841F0010101602068016821F462
:1007C00000610160222084F83D00402084F83E0052
:1007D00000262664C4F82480A4F82A90608D208521
:1007E0005D48E062CDE9007553465A4620460499BB
:1007F00001F04AF900287CD1208DD0B1012821D008
:100800000228206824D0416980690090208D032847
:1008100069D801282BD0514902283B464FF00002ED
:10082000009559D08846204601F012FA002860D180
:100830003CE02068416981690091016841F40071E0
:10084000016077E02068016821F480610160F0E7D1
:10085000016821F4806101602068016841F4006151
:100860000160206841698069009063E06FE02A467A
:100870003946204601F06BFA98BB20680069616A2E
:1008800008704EE02068016841F400710160206842
:100890000069616A0870606A401C6062218D491EAF
:1008A0002185618D491E6185216838E020680168D5
:1008B00021F48061016020680069616A0870606AE3
:1008C000401C6062208D401E2085608D401E60852A
:1008D0003B46002241460095204601F0B9F900B997
:1008E000D0E706E0FFE72A463946204601F02FFA16
:1008F00018B1012007B0BDE8F08F20680069616A77
:100900000870606A401C6062218D491E2185618DDE
:10091000491E618521684A69D24352070AD4096990
:100920000170606A401C6062208D401E2085608DD1
:10093000401E6085208D00287FF468AF202084F859
:100940003D0084F83E6084F83C600020D2E702203D
:10095000D0E70000020010000000FFFF04000100CB
:100960002DE9FF4F83B09A46DDE91197934604467F
:10097000DDF84080FFF738FE054694F83D0020285A
:100980007FD11923012240492046009501F060F9EA
:10099000002876D194F83C00012872D0012084F818
:1009A0003C0020680168C90703D1016841F00101DA
:1009B00001602068016821F400610160212084F851
:1009C0003D00402084F83E0000262664C4F82480C0
:1009D000A4F82A90608D20852C48E062CDE900754E
:1009E00053465A462046049901F0C2F870B930E0E7
:1009F0002A463946204601F0DDF958B1206C04281A
:100A000004D12068016841F400710160012007B041
:100A1000BDE8F08F606A216800780861606A401C58
:100A20006062218D491E89B22185628D521E6285C8
:100A300022685369DB435B070BD469B1007810610E
:100A4000606A401C6062208D401E2085608D401EC3
:100A50006085208D0028CBD12A463946204601F0FA
:100A6000D1F80028CAD154F83D0B016841F4007157
:100A70000160202004F81E09E67766770020C6E7AB
:100A8000FFE70220C3E70000020010000000FFFFA4
:100A900010B586B0044614216846FFF762FC14497D
:100AA0002068884221D11348016841F002010160A9
:100AB0000068694600F0020005904FF44070009015
:100AC0001220019001200290032003900420049042
:100AD0000948FFF7BFFC07481030016841F40011D6
:100AE0000160006800F40010059006B010BD000021
:100AF000005400403038024000040240024881683F
:100B00000278114481607047440000200B4810B502
:100B1000016841F400710160016841F48061016085
:100B2000016841F480710160032000F06FF800203B
:100B300000F006F800F024F8002010BD003C024050
:100B400070B50D4D04464FF47A712878B1FBF0F082
:100B50000A490968B1FBF0F000F0E2FA48B9102C3C
:100B600007D200222146501E00F030F800206C60B1
:100B700070BD012070BD0000440000205000002026
:100B80000A4808B5016841F480410160006800F43A
:100B9000804000900548001F016841F080510160CD
:100BA000006800F08050009008BD0000443802400A
:100BB000002809DB00F01F0201219140400980005C
:100BC00000F1E020C0F8001170470000F0B40E4BB7
:100BD0001B680C46C3F30223C3F10705042D00D99B
:100BE0000425191D072901D2002300E0DB1E012680
:100BF00006FA05F1491E214099409E40761E164096
:100C00003143F0BC01F05FBE0CED00E0064900F09E
:100C1000070208684FF6FF03184040EA0220034A23
:100C200010430860704700000CED00E00000FA057A
:100C30002DE9F0470E46050065D0DFF81481D8F89D
:100C40000000F7B200F00F00B04207D288F8007041
:100C5000D8F8000000F00F00B04254D128683D4C95
:100C6000810712D5400703D5206840F4E05020608A
:100C70002878000703D5206840F460402060206891
:100C8000A96820F0F000084320602878C0072DD024
:100C9000304968680839012812D0022813D0032887
:100CA00011D00968890700292DDA216821F0030194
:100CB00001432160FFF798FC814641F2883A0EE03B
:100CC00009688903EFE709688901ECE7FFF78CFC05
:100CD000A0EB0901514502D90320BDE8F087206847
:100CE000696800F00C00B0EB810FEFD1D8F800106C
:100CF000404601F00F01B14207D90770006800F0CB
:100D00000F00B04201D00120E7E72878400705D561
:100D10002068E96820F4E050084320602878000744
:100D200006D52068296920F4604040EAC1002060AF
:100D300000F036F82168084AC1F30311515CC8403D
:100D4000064908600020FFF7FBFE0020C5E7000011
:100D5000003C0240083802402C34000850000020BB
:100D60000448054900680968044AC1F38221515CBE
:100D7000C840704750000020083802403C3400084A
:100D80000448054900680968044AC1F34231515CCE
:100D9000C840704750000020083802403C3400082A
:100DA000154810B5006810F00C02144813D014490F
:100DB000042A0FD0082A0ED10F4C241F2268236862
:100DC00002F03F025B0207D52068C0F38810A0FB49
:100DD000010106E0084610BD2168C1F38811A1FB9E
:100DE00000010023FFF746FA2168C1F30141491CC5
:100DF0004900B0FBF1F010BD083802400024F400B7
:100E000040787D012DE9F84F050076D02878DFF88D
:100E1000F8B2BE4CC00749D0DBF800105846C1F309
:100E20008101012908D00068C0F3810002280AD19D
:100E3000201D0068400206D52068800336D568680A
:100E40000028E2D032E06868B0F5803F10D0B0F5FD
:100E5000A02F206810D020F480302060206820F47B
:100E6000802020606868A0B1FFF7BEFB06460CE05A
:100E7000206840F48030F4E740F480202060F7E7F9
:100E8000FFF7B2FB801B642873D820688003F7D576
:100E90000CE0FFF7A9FB064605E000BFFFF7A4FB47
:100EA000801B6428F0D820688003F7D42878DFF806
:100EB000608280074FF000093ED5DBF800105846ED
:100EC00011F00C0F09D00068C0F3810002280BD18B
:100ED0008D48001F0068400206D42068800715D5A1
:100EE000E868012809D111E0E868B8B10120C8F824
:100EF0000000FFF779FB064605E002E1FFF774FB0F
:100F0000801B0228C0D820688007F7D5206829698F
:100F100020F0F80040EAC10020600DE0C8F8009021
:100F2000FFF762FB064604E0FFF75EFB801B02282A
:100F30001FD820688007F7D42878000722D5724E82
:100F4000744869696C3671B101210160FFF74CFB8F
:100F5000074604E0FFF748FBC01B022809D83068A9
:100F60008007F7D50EE0C0F80090FFF73DFB07467D
:100F700005E083E0FFF738FBC01B02287ED830680D
:100F80008007F7D42878400768D5DFF87CA10027D0
:100F90000AF1380ADAF80000C0000BD4DAF80010C1
:100FA00041F08051CAF80010DAF80000012700F083
:100FB00080500090584E3068C00510D4306840F41E
:100FC00080703060FFF710FB009005E0FFF70CFB2E
:100FD0000099401A022851D83068C005F6D54A4E0B
:100FE000A868683601280FD00528306810D020F096
:100FF00001003060306820F004003060A868B8B1AB
:10100000FFF7F2FA00900FE0306840F00100F4E7DB
:1010100040F004003060F7E7FFF7E6FA0099411A64
:1010200041F28830814264D830688007F4D50EE000
:10103000FFF7DAFA009007E0FFF7D6FA0099411AB5
:1010400041F28830814254D830688007F4D42FB1FF
:10105000DAF8001021F08051CAF80010A869C0B376
:10106000DBF80010C1F3810102294AD0022848466A
:1010700007D0C8F86000FFF7B7FA00E039E005468E
:101080003AE04746C8F86000FFF7AEFA064604E0CB
:10109000FFF7AAFA801B02282BD820688001F7D41A
:1010A000D5E907010843A96A1C4A490802EB014136
:1010B0006A6A41EA8211084395F82C1040EA0161FE
:1010C0001148001F016001203866FFF78DFA0546C0
:1010D00005E014E0FFF788FA401B022809D82068D1
:1010E0008001F7D50BE000BFFFF77EFA401B022816
:1010F00002D90320BDE8F88F20688001F4D40020D5
:10110000F8E70120F6E70000083802400038024006
:1011100000004742800E4742007000400000FFFF81
:1011200010B5401EB0F1807F01D3012010BD4FF0FB
:10113000E02460610F21601701F0C5FB0020A06171
:1011400007202061002010BD7047704770B590F8EF
:101150003C20012A19D0012400F83C4F02224270A1
:1011600050F83C3C5A689D6822F070060A6849684D
:10117000324325F0800529435A6050F83C2C916099
:10118000447000210170084670BD022070BD10B58A
:10119000040003D094F83D0010B107E0012010BD19
:1011A000002084F83C00204600F00CF8022084F86F
:1011B0003D00211D206801F0FDF8012084F83D006C
:1011C000002010BD08B50068B0F1804F12D10A4868
:1011D000016841F0010101600068002200F0010097
:1011E000009011461C20FFF7F1FCBDE808401C20D0
:1011F000FFF7DEBC08BD0000403802400168CA6845
:1012000042F00102CA600068816801F00701062906
:1012100003D0016841F0010101600020704770B502
:10122000044690F83C00012817D0012584F83C5072
:10123000022084F83D002068826822F0770222F4C0
:101240007F4282600868502830D00DDC20284DD0C5
:1012500005DC98B310283BD148E0022070BD30284F
:1012600044D0402834D139E0602828D0702806D0F6
:10127000B0F5805F2CD0B0F5005F29D10AE0CB68D3
:10128000D1E90121206801F0EEF82068816841F081
:10129000770109E0CB68D1E90121206801F0E3F88A
:1012A0002068816841F48041816011E0CA68496822
:1012B000206801F08DF95021206807E016E0CA6827
:1012C0004968206801F095F96021206801F0D5F89F
:1012D00084F83D50002084F83C0070BDCA6849681D
:1012E000206801F075F940212068EFE72268014687
:1012F0001046EBE72DE9F0410D46040003D094F8C9
:101300003D0018B108E00120BDE8F081002084F81C
:101310003C00204600F03AF8022084F83D002068A6
:10132000816844F2070291438160211D206801F029
:1013300041F8226890689169166A2B68AF69034387
:1013400040F20330814341EA0721A868EF6908436E
:101350004FF6FC418843E96840EA072001432869C9
:101360002F6A000140EA0730084369686D6926F07A
:10137000AA0646EA05152943936022689061206811
:101380000162012084F83D000020BDE7F0B587B080
:10139000044614216846FEF7E4FF21481F4F2668E3
:1013A0001F491038C025022201230324BE4217D151
:1013B0000E6846F002060E60096801F00201059110
:1013C000016841F001010160006801AE009586E806
:1013D0001C0000F00100CDE904206946114819E025
:1013E000114FBE4218D10E6846F004060E6009681F
:1013F00001F004010591016841F0020101600068FB
:1014000001AE009586E81C0000F00200CDE9042042
:1014100069460648FFF71EF807B0F0BD000400401B
:101420004038024000000240000800400004024032
:1014300010B50446006891B1042904D001220021AE
:1014400001F004F8206801225FF0040100F0FEFFC3
:101450002068016841F001010160002010BD0122F7
:101460000021F3E7704770B50446006801694FF04A
:101470000005C943890715D4C168C943890711D438
:10148000E91E0161012020772068806980072046DD
:1014900002D0FFF7E7FF04E000F0C2F8204600F0BA
:1014A00057F9257720680169C943490717D4C168EE
:1014B000C943490713D46FF004010161022020776A
:1014C0002068806910F4407F204602D0FFF7CAFFF1
:1014D00004E000F0A5F8204600F03AF925772068EE
:1014E0000169C943090716D4C168C943090712D461
:1014F0006FF008010161042020772068C06980072F
:10150000204602D0FFF7AEFF04E000F089F8204645
:1015100000F01EF9257720680169C943C90617D470
:10152000C168C943C90613D46FF0100101610820D6
:1015300020772068C06910F4407F204602D0FFF772
:1015400091FF04E000F06CF8204600F001F92577E7
:1015500020680169C943C90708D1C168C943C907DF
:1015600004D1891E0161204600F010F9206801694C
:10157000C943090609D4C168C943090605D46FF0F7
:10158000800101612046FFF7DFFD20680169C94342
:10159000490609D4C168C943490605D46FF0400122
:1015A0000161204600F0D0F920680169C94389062D
:1015B0000BD4C168C943890607D46FF020010161CB
:1015C0002046BDE87040FFF7C0BD70BD10B586B0C5
:1015D000044614216846FEF7C4FE0E49206888427E
:1015E00015D10D480021026842F001020260006836
:1015F00000F0010005900C2000900220CDE90101CF
:101600000320CDE9031069460448FEF723FF06B026
:1016100010BD000000400140303802400000024090
:10162000704770B5044690F83C000D4601280DD077
:10163000012684F83C60022084F83D0042B1042A6F
:1016400018D0082A2AD00C2A4DD139E0022070BDCA
:10165000206800F01BFF2068816941F0080181616A
:101660002068816921F004018161206881692A690B
:10167000114311E0206800F031FF2068816941F4D6
:10168000006181612068816921F480618161206845
:1016900081692A6941EA0221816124E0206800F021
:1016A00049FF2068C16941F00801C1612068C16932
:1016B00021F00401C1612068C1692A69114311E068
:1016C000206800F063FF2068C16941F40061C161D6
:1016D0002068C16921F48061C1612068C1692A69FB
:1016E00041EA0221C16184F83D60002084F83C0099
:1016F00070BD10B5040003D094F83D0010B107E0B0
:10170000012010BD002084F83C00204600F00CF8B9
:10171000022084F83D00211D206800F04BFE0120CE
:1017200084F83D00002010BD08B5006806498842D5
:1017300008D10648016841F480310160006800F476
:101740008030009008BD0000004001404438024055
:101750007047000010B504460068012200F076FED4
:1017600009492068884203D1416C41F40041416439
:101770002068816801F00701062903D0016841F063
:1017800001010160002010BD000001402DE9F0477B
:10179000DFF874A15D4FDFF878812DED028B0068D2
:1017A000B0F1804F7ED198F800004546401C88F883
:1017B000000058480068406AA8F8060055484030C4
:1017C0000068406AA8F80A0001F08EF8524C5349AC
:1017D000E0680968524E401A524A2061F168126866
:1017E000891A3161616994EC030A01F0FBF944F64E
:1017F0002061C1F10009A061884201DDA16103E01F
:10180000484501DAC4F818909AED000A97ED008A6D
:10181000454920EE080A10EE100A85ED040A434DF2
:1018200088420CD9B5F9000001F0E1FC9FED401BA6
:1018300053EC112B01F0F2FC01F0AAFC2880B5EE6C
:10184000C08AB0EE000AF1EE10FA04DCB5EEC08AF0
:10185000F1EE10FA0CD2B5F9000000EE900AF8EEA5
:10186000E00A48EE000ABDEEE00A10EE100A2880F9
:10187000B5F9001047F23050814204DCB5F9001090
:101880004846814200DA2880B5F90010A069084472
:1018900049F64041B061884202DC4942884200DAA0
:1018A000B16100E01CE02069606130697061002274
:1018B0002149224800F018FB1F48F1EE040A9FED71
:1018C000201A90ED020A1F4860EE200A80EE810A7D
:1018D000D0ED000A30EEC00A80ED000A87ED000A64
:1018E00098F800104046C82909D300210170C1882A
:1018F00001814189818197ED000A8AED000ABDECE2
:10190000028BBDE8F08700001400002008000020D2
:101910001C0000206001002078000020040000204E
:10192000940000200C000020000020C118000020BE
:101930009A9999999999C9BF54000020CC00002028
:1019400000007A4410000020704770B5040004D0F5
:1019500094F83900002510B106E0012070BD84F82C
:101960003850204600F022F8242084F839002068FE
:10197000C16821F40051C160204600F04DFE20688E
:10198000016921F4904101612068416921F02A0137
:1019900041612068C16841F40051C160E5632020C5
:1019A00084F8390084F83A00002070BD10B586B084
:1019B000044614216846FEF7D4FC14492068884286
:1019C00021D11348016841F010010160006800F066
:1019D000100005900E481438016841F001010160C3
:1019E0000068694600F0010005904FF4C060009067
:1019F0000220019001200290032003900720049010
:101A00000448FEF727FD06B010BD0000001001409D
:101A100044380240000002401FB54FF47A7203219F
:101A200003A88DE8070001230A223C210948FEF79C
:101A30009BFE9DF80C00482807D19DF80D00342826
:101A400003D19DF80E00332802D0002004B010BD51
:101A50000120FBE7CC000020FEE701684A69D24381
:101A600052050FD46FF480624A61002140F8301FA4
:101A7000202242738173026942F004020261017301
:101A800001207047002070472DE9F84F0446006898
:101A900089460B9D01689846174641F480610160B4
:101AA0002068016841F48071016000954FF0011ACF
:101AB0000022514620460A9B00F0CAF8002853D164
:101AC000216809F0FE0008610AF1010B2B46594616
:101AD00020460A9A00F0F0F8F0BB2068416980695E
:101AE00000902A4620460A9900F064F940B1206C23
:101AF000042839D12068016841F40071016033E0A5
:101B0000FEB2B8F1010F09D02168380A08612A46EF
:101B100020460A9900F04EF90028E8D120680661B5
:101B20002A4620460A9900F045F90028DFD12068AE
:101B3000016841F480710160009500225146204601
:101B40000A9B00F085F838B9216809F0FF0040F0E1
:101B5000010008612B4600E006E0594620460A9A3B
:101B600000F0AAF8002800D00120BDE8F88F00009E
:101B70002DE9F843044600680D46DDE90897016841
:101B80009846164641F4807101604B4600224FF0A2
:101B900001112046009700F05BF8E0B9216805F0DC
:101BA000FE0008613B464A461549204600F084F88D
:101BB00088B920684169806900903A4649462046C4
:101BC00000F0F8F850B1206C042804D120680168B6
:101BD00041F4007101600120BDE8F883F5B2B8F16D
:101BE000010F09D02168300A08613A46494620466B
:101BF00000F0E0F80028E6D1206805610020EBE75E
:101C00000200010070B516460D4604460DE0204660
:101C1000FFF723FF08B1012070BD681C05D0FEF757
:101C2000E3FC801BA84207D835B120684069C04357
:101C30004007ECD4002070BD002044F8300F202174
:101C40006173A073216941F0200121612073E2E7F3
:101C50002DE9F0471E4690460D460446C1F307475E
:101C6000DDF8209008E0701C06D0FEF7BDFCA0EB6C
:101C70000900B0420FD876B12068012F18D08069D2
:101C800025EA00000004000C14D000214145EAD0F0
:101C90000020BDE8F087002044F8300F2021617358
:101CA000A073216941F02001216120730120F0E738
:101CB0004069E5E70121E9E72DE9F0479A469146B9
:101CC0000E46044600254FF02008C1F3074725E0E3
:101CD00020684069C043400514D42068016841F47D
:101CE0000071016021686FF480604861256384F8A9
:101CF0003D8084F83E50206C40F00400206484F85D
:101D00003C501FE0B9F1FF3F08D0FEF76DFCA0EB9F
:101D10000A0149450CD8B9F1000F09D02068012FFC
:101D200013D0806926EA00000004000C0BD0CFE736
:101D300044F8305F84F80D80A573206940F02000DE
:101D4000206125730120BDE8F0874069EAE72DE9AD
:101D5000F041002590460E460446202717E04069D2
:101D6000C043C0060CD454F8301B6FF0100048611B
:101D700044F810596777A577206A2062257717E025
:101D8000FEF732FCA0EB0800B04208D83EB1206854
:101D90004169C9434906E2D40020BDE8F08144F816
:101DA000305F6773A573206940F0200020612573C0
:101DB0000120F2E770B516460D4604460DE02046B8
:101DC000FFF74BFE08B1012070BD681C05D0FEF77F
:101DD0000BFC801BA84207D835B120684069C0437E
:101DE0000006ECD4002070BD002044F8300F202104
:101DF0006173A073216941F0200121612073E2E742
:101E00002DE9FF41074600208DF80C00012503AEA7
:101E10004FF47A740096CDE901542B466A22D02102
:101E20003846FEF79DFD02208DF80C000096CDE9A6
:101E3000015401233722D0213846FEF791FDBDE839
:101E4000FF812DE9F04786B08246012503A8CDE940
:101E5000000598461746894600264FF47A748DF897
:101E60000C602B467522D02102945046FEF77CFC74
:101E70009DF80C00682831D18DF810605046FFF7AE
:101E8000BFFF8DF8106004AE0096CDE90154012328
:101E90006B22D0215046FEF763FD8DF8109000961E
:101EA000CDE9015401231922D0215046FEF758FDF7
:101EB0008DF810700096CDE9015401231C22D02129
:101EC0005046FEF74DFD8DF810800096CDE9015487
:101ED00001231B22D0215046FEF742FD9DF80C0045
:101EE00006B0BDE8F0870000F0B500202DED028BB4
:101EF00085B015460C46039004904FF47A72062183
:101F000003A88DE8070001234322D0212A48FEF7C9
:101F10002BFCBDF80E10BDF80C0049BA0FB2BDF88D
:101F2000101040BA49BA00B20EB215B1012D07D057
:101F300029E001F05CF941EC100B9FED208B05E0EE
:101F400001F055F941EC100B9FED1E8B51EC100B7D
:101F500053EC182B00F0C4FF00F090FF20603846CF
:101F600001F045F953EC182B00F0BAFF00F086FFA2
:101F70006060304601F03BF953EC182B00F0B0FFE5
:101F800000F07CFFA0609DF80C0078B99DF80D0072
:101F900060B99DF80E0048B99DF80F0030B99DF862
:101FA000100018B99DF81100002800D0012005B0DC
:101FB000BDEC028BF0BD0000CC0000200000000052
:101FC0000060604000000000006050402DE9F043D8
:101FD00087B014216846FEF7C4F92F480024016831
:101FE00041F004010160016801F0040105910168FC
:101FF00041F080010160016801F0800105910168F4
:1020000041F001010160016801F0010105910168E1
:1020100041F0020101600068DFF8808000F00200FA
:102020004FF400550590002229464046FEF7D6FAA7
:102030000122DFF86C90960231464846FEF7CEFA50
:102040004FF47047002239464846FEF7C7FA00951C
:102050000125CDE90154694640460394FEF7FAF99B
:10206000E8038DE8310069464046FEF7F3F90320A6
:10207000CDE90240CDE9006569464846FEF7EAF938
:102080000097CDE90154694648460394FEF7E2F90A
:1020900007B0BDE8F083000030380240000802407D
:1020A000000402400D4810B50B4901600C49416025
:1020B00000214FF480428160C0E9031241618161D7
:1020C000C1610162FEF796FA002803D0BDE8104016
:1020D000FEF7ADB910BD000000540040CC00002058
:1020E000801A060010B586B00024164800940194AA
:1020F0000294039404944FF08041059401604AF2E5
:102100000F41C0E901140921C0E903148461FFF7FC
:102110003EF808B1FEF78BF94FF480500090694605
:102120000848FFF77CF808B1FEF781F9049404A988
:1021300004480594FFF70AF8002801D0FEF777F964
:1021400006B010BD2001002010B58CB024216846D7
:10215000FEF707F900241648099414490A94C0E9C7
:1021600000144FF6FF71C0E902410461846103204D
:10217000009001AA0220012182E81300CDE9044069
:10218000CDE9061469460A480894FFF7B3F808B188
:10219000FEF74DF9099409A905480A94FEF7D6FF00
:1021A000002801D0FEF743F90CB010BD0004004038
:1021B0006001002010B58CB024216846FEF7D1F8EC
:1021C00000241648099414490A94C0E900144FF6F3
:1021D000FF71C0E90241046184610320CDE900047C
:1021E0000120CDE902040221CDE90441CDE9060434
:1021F00069460A480894FFF77DF808B1FEF717F919
:10220000099409A905480A94FEF7A0FF002801D007
:10221000FEF70DF90CB010BD00080040A001002031
:1022200010B588B01C216846FEF79BF81648154982
:10223000002401601421C0E9011449F63F41C0E9BE
:1022400003148461FFF755FA08B1FEF7F0F8602037
:10225000CDE900040294002269460B480494FFF77C
:10226000E0F908B1FEF7E3F8042269460648FFF7F3
:10227000D8F908B1FEF7DBF80348FFF7A7F908B073
:1022800010BD000000400140E00100200C4810B5E6
:102290000A4901604FF4E1314160002181600C2264
:1022A000C160C0E904128161C161FFF74EFB0028E3
:1022B00003D0BDE81040FEF7BAB810BD00100140D1
:1022C00020020020FEE7704770477047FEF716BCFB
:1022D00030B593B030216846FEF743F814210CA8BE
:1022E000FEF73FF819480025016841F08051016070
:1022F000006800F0805011901548016821F44041B9
:1023000041F4004101600068022400F44040119053
:1023100001200090000401908001CDE906401920C1
:102320000890A820CDE9090404200B906846FEF728
:1023300069FD0CA90F2081E83100E002CDE90F050D
:1023400002210CA8FEF774FC13B030BD40380240E7
:10235000007000401048016841F4700101600F48AE
:10236000016841F0010101600C4A0021083211604E
:1023700002680B4B1A400260031D0A4A1A60026889
:1023800022F48022026005480C30016002495806A0
:10239000803908607047000088ED00E00038024096
:1023A000FFFFF6FE103000240148FFF75CB8000084
:1023B00020010020F0B502681D4B1E4C9F031E4DEE
:1023C0001E4E984207D0B84205D0A04203D0A84282
:1023D00001D0B04204D122F0700C4A6842EA0C02EB
:1023E000984210D0B8420ED0A0420CD0A8420AD0D9
:1023F000B04208D0124CA04205D0124CA04202D0EC
:10240000114CA04203D122F44074CA6822434C69A3
:1024100022F08002224302608A68C2620A688262F5
:10242000984201D10969016301214161F0BD0000B9
:10243000000001400004004000080040000C004083
:1024400000400140004401400048014010B501F047
:102450001F030121046A99408C430462016A9A4077
:102460001143016210BD10B5846842EA032224F4CE
:102470007F440A432243826010BD826822F07002CA
:102480000A4342F0070181607047000030B5026ADC
:1024900022F001020262026A4368846924F0730533
:1024A0000C682C4322F002058A682A430A4DA84290
:1024B0000BD122F00805CA6823F440732A434D6902
:1024C00022F004021D438B692B43436084614968F9
:1024D0004163026230BD00000000014030B5026A75
:1024E00022F010020262026A436884690D6824F4D3
:1024F000E64444EA05248D6822F0200242EA0512EF
:102500000B4DA8420ED1CD6822F0800242EA05129E
:102510004D6923F4406343EA85038D6922F040024C
:1025200043EA85034360846149688163026230BD88
:102530000000014030B5026A22F480720262036A30
:102540004268C46923F4007324F073050C682C43BB
:102550008D6843EA05230C4DA8420ED1CD6823F4C3
:10256000006343EA05234D6922F4405242EA051212
:102570008D6923F4806342EA05124260C4614968B0
:10258000C163036230BD00000000014030B5026A43
:1025900022F480520262046A4268C3690D6823F41F
:1025A000E64343EA05238D6824F4005444EA0534E5
:1025B000064DA84204D14D6922F4804242EA8512B8
:1025C0004260C36149680164046230BD000001409B
:1025D00010B5036A046A24F001040462846924F0DB
:1025E000F00444EA021423F00A020A4384610262FE
:1025F00010BD10B5036A23F0100303628369046AF7
:1026000023F4704343EA023224F0A00343EA0111A9
:102610008261016210BD00002DE9F04104460068AE
:102620000169E26821F44051114301612169A06808
:10263000E26908436169114322680843D16849F29D
:102640000C6399430143D16020684169A26921F478
:10265000407111434161E2696425B2F5004F97482A
:10266000974922684FF032083FD08A4201D0824217
:102670007CD1FEF785FB00EBC00101EB0010616827
:102680008900B0FBF1F6FEF77BFB00EBC00101EB2C
:10269000001061688900B0FBF1F0B0FBF5F06FF05D
:1026A0001801484306EB800108EB0110B0FBF5F080
:1026B00000F0F006FEF764FB00EBC00101EB001038
:1026C00061688900B0FBF1F0B0FBF5F006EB001695
:1026D000FEF756FB00EBC00101EB001061688900BA
:1026E000B0FBF1F7FEF74CFBD2E08A4201D0824208
:1026F0003DD1FEF745FB00EBC00101EB0010616826
:102700004900B0FBF1F0B0FBF5F00601FEF738FB35
:1027100000EBC00101EB001061684900B0FBF1F76C
:10272000FEF72EFB00EBC00101EB001061684900D1
:10273000B0FBF1F0B0FBF5F06FF01801484307EB88
:10274000800108EBC100B0FBF5F000F0F80006EBEB
:102750004006FEF715FB00EBC00101EB00106168BD
:102760004900B0FBF1F7FEF70BFB3CE055E0FEF74C
:10277000F7FA00EBC00101EB001061684900B0FB03
:10278000F1F0B0FBF5F00601FEF7EAFA00EBC0014C
:1027900001EB001061684900B0FBF1F7FEF7E0FAC9
:1027A00000EBC00101EB001061684900B0FBF1F0E3
:1027B000B0FBF5F06FF01801484307EB800108EB20
:1027C000C100B0FBF5F000F0F80006EB4006FEF7A4
:1027D000C7FA00EBC00101EB001061684900B0FBD3
:1027E000F1F7FEF7BDFA00EBC00101EB00106168E4
:1027F0004900B0FBF1F0B0FBF5F06FF01801484371
:1028000007EB800108EBC100B0FBF5F000F007001A
:10281000216830448860BDE8F081FEF7A1FA00EB42
:10282000C00101EB001061688900B0FBF1F6FEF712
:1028300097FA00EBC00101EB001061688900B0FB62
:10284000F1F0B0FBF5F06FF01801484306EB8001A2
:1028500008EB0110B0FBF5F000F0F006FEF780FA8F
:1028600000EBC00101EB001061688900B0FBF1F0E2
:10287000B0FBF5F006EB0016FEF772FA00EBC001B4
:1028800001EB001061688900B0FBF1F7FEF768FA10
:1028900000EBC00101EB001061688900B0FBF1F0B2
:1028A000B0FBF5F06FF01801484307EB800108EB2F
:1028B0000110B0FBF5F000F00F00A9E70014014093
:1028C00000100140FEE70907090E002804DB00F1B3
:1028D000E02080F80014704700F00F0000F1E020C5
:1028E00080F8141D7047000030B52648B0F9063056
:1028F000254A002143F69824002B08DAB0F9083065
:10290000A34204DD43885B1C438013685962B0F91D
:102910000A501D4B4033002D08DAB0F90C50A54287
:1029200004DD8488641C84801C686162B0F90650F0
:10293000164C002D08DDB0F90850A54204DA458890
:102940006D1E458012685162B0F90A20002A08DD28
:10295000B0F90C20A24204DA8288521E82801A68E2
:102960005162B0F90610B0F9022001EBC231084AF9
:102970001160B0F90A10B0F9040001EBC03005494C
:10298000086030BD1C0000206001002068C5FFFF0A
:10299000040000200C00002070B5401A411C114DAD
:1029A0004FF4806403290AD20021084600F00AFA95
:1029B000002221462846FDF711FE012070BD0A4A7B
:1029C0005342022802DB1146184601E01946104620
:1029D00000F0F8F9012221462846FDF7FFFD00200E
:1029E00070BD000000040240F0D8FFFF70B5104C2D
:1029F000104DE060401AC7304FF48064B0F5C77FD7
:102A00000AD80021084600F0DDF9002221462846B8
:102A1000FDF7E4FD012070BD1946104600F0D2F923
:102A2000012221462846FDF7D9FD002070BD000097
:102A3000780000200004024080EC030A7047000088
:102A4000FEF764F8FFF744FCFFF7C0FAFFF7E8FB76
:102A5000FFF728FBFFF746FBFFF776FBFFF7AAFB24
:102A6000FFF714FC4F48FEF7C9FB04214E48FEF760
:102A7000DFFC04214D48FEF7DBFC00214C48FEF74B
:102A800069FE04214A48FEF765FE4A4D42F210777E
:102A90009FED490ADFED490AEF6005F11C0685EC60
:102AA000020AF2EE040AC5ED020A0021F16086ED89
:102AB000000A9FED430A05F1380086ED010A9FEDFB
:102AC000410AC16080ED000A9FED3F0A80ED010AD6
:102AD0009FED3E0A80ED020A9FED3D1AF7EE000AD7
:102AE000B7EE000A5038FFF7A7FF012300220721A5
:102AF0003848FFF7A6F9384C4FF4FA782070404672
:102B0000FDF796FCFEF788FF58B1072000F0ECF8BF
:102B1000002000F0C5F8052000F09CF8032000F02C
:102B20002BF9B369AA6961683846FFF75FFF00288F
:102B3000F7D04746404600F07BF800BF94ED020A0C
:102B4000BDEEC00A10EE100A01B25A20FFF724FFB2
:102B50000028F3D0384600F06BF8DFF88080B369C6
:102B6000AA6961684046FFF741FF0028F7D0384660
:102B700000F05EF86FF02C0594ED020ABDEEC00A7D
:102B800010EE100A01B22846FFF706FF0028F3D026
:102B9000384600F04DF8012291021148FDF71EFD64
:102BA000FEE700002001002060010020A0010020BD
:102BB000E0010020780000200000C8420AD7A33BB3
:102BC00000007A440000FA4400004843000000007E
:102BD0000AD7233CCC0000200000002078ECFFFF47
:102BE0000004024001EE900AF8EEE11A20EE210AFC
:102BF000BDEEC00A10EE103A00EE102AF8EEC01A30
:102C000000EE100A401AB8EEC00A40EE801ABDEE7F
:102C1000E10A10EE102A00EE100A9918B8EEC00A68
:102C200020EE010ABDEEC00A10EE100A08447047FB
:102C300010B5FDF7FDFB05489FED030A044980ED43
:102C4000000A0020088010BD0000000010000020D5
:102C5000180000202DE9FF41012503AE4FF47A74DE
:102C60000096CDE9015407462B4600223C210B4833
:102C7000FDF77AFD9DF80C00009600F0E30040EAB5
:102C800087008DF80C00CDE90154012302223C217C
:102C90000248FDF765FEBDE8FF810000CC00002082
:102CA0002DE9FF41012503AE4FF47A740096CDE97A
:102CB000015407462B4602223C210A48FDF754FDE9
:102CC0009DF80C00009600F0FC0038438DF80C00D5
:102CD000CDE90154012302223C210248FDF740FEC8
:102CE000BDE8FF81CC0000201FB5194908280CD28F
:102CF000DFE800F004071B1E2124272A9FED150A98
:102D000001E09FED150A81ED000A40018DF80C00ED
:102D100001214FF47A7203A88DE807000B460A469A
:102D20003C210E48FDF71CFE1FBD9FED0D0AEAE792
:102D30009FED0C0AE7E79FED0C0AE4E79FED0B0A15
:102D4000E1E79FED0B0ADEE79FED0A0ADBE70000F3
:102D5000300000200681953D1F856B3FCC00002090
:102D6000F6289C3F5C8FC23FAE4711400AD72340F4
:102D700085EB414033338B402DE9FF41012503AE04
:102D80004FF47A740096CDE9015407462B46002291
:102D90003C210B48FDF7E8FC9DF80C00009600F084
:102DA0009F0040EA47108DF80C00CDE90154012343
:102DB00000223C210248FDF7D3FDBDE8FF81000061
:102DC000CC0000202DE9F0410C46294905464A4235
:102DD000884201DA0D4602E0954200DD15460846BC
:102DE000244E254F4FF400514FF48058844201DAAD
:102DF000044605E0944201DD14460EE0002C0CDA96
:102E000000223046FDF7EAFB012241463046FDF73D
:102E1000E5FB3968604248630AE001223046FDF76D
:102E2000DDFB002241463046FDF7D8FB386844639D
:102E30004FF400414C10002D0DDA00223046FDF712
:102E4000CDFB012221463046FDF7C8FB39686842B8
:102E50008863BDE8F08101223046FDF7BFFB002208
:102E600021463046FDF7BAFB38688563F1E700007C
:102E7000C063FFFF00040240E001002021F0004297
:102E8000A2F16052B2F5801F01F0004328BFD2F1D9
:102E90007F6C0BD95FEA001C43EAC20242EB507020
:102EA00018BF704728BF20F001007047B2F5801F9F
:102EB000BCBF184670474FEA410C1CF5001F02D2F8
:102EC000084600F0AEBA70B500F052FA0000008972
:102ED000FFF7F6BF4FF00040A0F5800070470000FC
:102EE0002DE9C04130B4DFF8A0C23CEA111418BF8C
:102EF0003CEA131400F0EC8081EA03051CEA11148B
:102F000044EAD57418BF1CEA131500F0C780A4EB7F
:102F100005044FF0004545EAC12145EAC32341EAD3
:102F2000505143EA525304F17F74994204F500343E
:102F30004FEAC0204FEAC22208BF904200F09C80B6
:102F40004FEA13650FF24016765D4FEA134506FB14
:102F500005F7C7F1807706FB07F74FEAD737A7FBDE
:102F600003687642C8F58038A7FB06CE38BFA8F1C3
:102F7000010807FB08E64FF0000EA6FB028CE6FBFB
:102F800003CEDCF1000CCEF1004E38BFAEF1010EE5
:102F9000A6FB0C584FF000074FF00005E6FB0E872C
:102FA000A1FB08C6A0FB07CE16EB0E0645F10005F7
:102FB000E1FB076515F1E04E7EBFA4F580345FEAC2
:102FC00046066D4116F1800745F100054FEA1727C7
:102FD0004FEA066647EA0567A6F1DE46B6F1805F6E
:102FE0004FEA15251FD9384624F0010C05EBC471B2
:102FF000BCF1FE6F01EB0C1102D8F0BCBDE8008102
:1030000024425CBF01F5801E9EEAC47F02D4F0BC5E
:10301000BDE80081244238D4F0BCA1F1C041BDE834
:10302000004100F0F3B94FEAD22242EA43524FEA9C
:10303000D323A7FB02864FEAD02040EA415007FB8A
:1030400003661EEA0E0F4FEAD12105FB026658BF48
:10305000A6EB0056B6EB00564FEA520E4EEAC37E80
:1030600018EB0E0E56EB530EBDD518EB02085E4161
:103070007F1C55F10005B6E74FF480154FF00007AF
:103080004FF000064FF00008ADE7F0BC4FF0000035
:1030900001F1C04101F00041BDE8008111EA0C1FBF
:1030A0000CEA131500D00CE013EA0C1F00F0258089
:1030B0004FF00000F0BC81EA030101F00041BDE8DF
:1030C0000081F0BCBDE8004181EA030100F09EB937
:1030D000F0BCBDE8004170B500F04AF9097EFC3E45
:1030E00000F007B881EA03014FF0000001F0004151
:1030F000704781EA030100F089B9F0BCBDE80041E6
:103100004FF0000021497047FFFDFBF9F7F5F4F29D
:10311000F0EEEDEBE9E8E6E4E3E1E0DEDDDBDAD872
:10312000D7D5D4D3D1D0CFCDCCCBCAC8C7C6C5C4D0
:10313000C2C1C0BFBEBDBCBBBAB9B8B7B6B5B4B3E7
:10314000B2B1B0AFAEADACABAAA9A8A8A7A6A5A4D2
:10315000A3A3A2A1A09F9F9E9D9C9C9B9A99999896
:103160009797969595949393929191908F8F8E8E39
:103170008D8C8C8B8B8A89898888878786858584C6
:1031800084838382828181800000FF070000F87FB2
:103190004FEA41034FEA5353A3F58063D3F11E0373
:1031A000C8BFD3F1210C0CDD4FF0004242EAC1222E
:1031B00042EA505232FA03FC8CEAE17CACEBE1705B
:1031C0007047102BC4BF0020704703F5787CBCF11A
:1031D000FF3F04D06FF0004282EA2100704770B5D3
:1031E00000F0C6F84992248000207047F2E710F002
:1031F000004248BF4042B0FA80F310FA03F10AD00F
:10320000C3F11D0303F580634FEA415002EB035203
:1032100002EBD12170474FF000007047DFF848C142
:1032200070B51CEA111E1EBF1CEA13159EEA0C0F96
:1032300095EA0C0F00F06F8081EA030423EA4C1337
:103240004EEAD47E21EA4C1141F4801143F48013FC
:10325000AE44A1FB024CA0FB0365AEF17F7E3619A4
:1032600055EB0C05A1FB034C4CF10003A0FB021C29
:1032700016EB0C06654153F10003094218BF46F0F6
:10328000010613F4007F0BD14FEA03314FEA0530FA
:10329000340341EA155140EA16506FF003020AE088
:1032A0004FEAC3214FEAC520F40241EA555140EAF2
:1032B00056506FF0020202EB2E4201EB025585EAF6
:1032C000CE710AD05FEA440C18BF24F0004450F1DC
:1032D000000041F1000120EAD47040F2FE7C62451A
:1032E00000D270BDA84214BF4FF080444FF040445C
:1032F000002E08BF0024BEF1806FA8BFA1F1C0411D
:10330000BDE8704080F282804FF0000001F1C041C2
:1033100001F0004170479EEA0C0F0CEA131518BF2C
:1033200095EA0C0F06D04FF0000081EA030E0EF074
:10333000004170BD00F01CF88900013E00F007B8A4
:1033400000F009B84FEA430C5FEA5C5C08D081EA00
:10335000030100F05BB84FEA410C5FEA5C5CF6D118
:103360004FF00000014970470000FF070000F87FA0
:103370000EF1020E2EF0030E5EF8046B364205D4F9
:10338000012A43EB030515F5001F12D8012841EB74
:10339000010C1CF5001F0CD80ED14FEAD17C15F59D
:1033A000001F0CEB4C0C0CF1020C08BF4CEBD37C57
:1033B00004E04FF0080C01E04FEAD37C0CEB4C0525
:1033C00026FA05F606F00706B6F1040C06D20EEB57
:1033D000860CBDE870404CF0010C6047DFE80CF053
:1033E000090B02024FF000414FF00000A1F500214F
:1033F00070BD19461046012851EB010418BFD4F5E1
:10340000001484BF002001F0004170BD0808A0F541
:1034100000114FEA310170474FF04070E1EE100AA1
:103420007047FF2141EAD050C005704700000000FE
:103430000000000001020304060708090000000064
:10344000010203046434000800000020540000005E
:10345000D0010008B8340008540000206C080000B7
:10346000EC01000800000000000000000000000067
:10347000000000000000000000000000000000004C
:10348000000000000000000000000000000000003C
:10349000000000000000000000000000000000002C
:1034A000000000000000000001000000100000000B
:0834B000000000000024F400FC
:040000050800019559
:00000001FF
