:020000040800F2
:10000000380900205102000863390008F530000863
:10001000613900087D1800089140000800000000C8
:100020000000000000000000000000006739000828
:100030007F180008000000006539000869390008D1
:100040006B0200086B0200086B0200086B020008DC
:100050006B0200086B0200086B0200086B020008CC
:100060006B0200086B0200086B0200086B020008BC
:100070006B0200086B0200086B0200086B020008AC
:100080006B0200086B0200086B0200080000000011
:100090000000000000000000000000006B020008EB
:1000A0006B0200086B0200086B0200086B0200087C
:1000B000453A00086B0200086B0200086B0200085A
:1000C0006B0200086B0200086B0200086B0200085C
:1000D0006B020008854000086B0200080000000069
:1000E0006B0200086B0200086B02000800000000B1
:1000F0000000000000000000000000006B0200088B
:10010000000000006B0200086B0200086B02000890
:1001100000000000000000000000000000000000DF
:100120006B0200086B0200086B0200086B020008FB
:100130006B0200080000000000000000000000004A
:100140000000000000000000000000006B0200083A
:100150006B0200086B0200086B0200086B020008CB
:100160006B0200086B0200080000000000000000A5
:10017000000000000000000000000000000000007F
:10018000000000006B0200080000000000000000FA
:100190006B02000800F002F800F04AF80AA090E8AC
:1001A000000C82448344AAF10107DA4501D100F032
:1001B0003FF8AFF2090EBAE80F0013F0010F18BFB5
:1001C000FB1A43F001031847EC5000000C510000EB
:1001D000103A24BF78C878C1FAD8520724BF30C873
:1001E00030C144BF04680C60704700000023002445
:1001F00000250026103A28BF78C1FBD8520728BF37
:1002000030C148BF0B6070471FB504F071FF00F0AC
:10021000ABFC04000020002104F0C4FB401C606023
:100220000020002104F0A8FBE0601FBD10B510BD48
:1002300000F0A6F91146FFF7E7FF04F06BF900F0B4
:1002400049FC03B4FFF7F2FF03BC00F003FD00001C
:100250000948804709480047FEE7FEE7FEE7FEE75A
:10026000FEE7FEE7FEE7FEE7FEE7FEE70448054996
:10027000054A064B70470000F13900089501000857
:1002800038030020380900203805002038050020F8
:1002900053EA020C00F069802DE9F04B4FF00006A4
:1002A000002B1FBFB3FA83F503FA05F424FA05F611
:1002B0005E4012BF1643B2FA82F502FA05F4C5F1A8
:1002C00020051EBF22FA05FC44EA0C04203556EA3C
:1002D000044C4FEA144418BF641C4FF000084FF060
:1002E0000009904271EB030C39D3002919BFB1FA10
:1002F00081F701FA07F6B0FA80F700FA07F6C7F1BE
:1003000020071EBF20FA07FC46EA0C062037B6FB82
:10031000F4FCA7EB0507103F07F01F0BCBF12006FD
:100320000CFA0BFB2CFA06F644BFB3460026202F2E
:10033000A4BF5E464FF0000B5BEA060C08BF4FF00F
:10034000010B19EB0B09ABFB027C48EB0608C01B49
:1003500006FB02CC0BFB03CC71EB0C01C1E70B4697
:10036000024641464846BDE8F08B13B54FF0000009
:100370004FF00001AFF30080BDE81C407047000063
:10038000014A00F08BB80000540000204FF000023A
:1003900000B5134694469646203922BFA0E80C507B
:1003A000A0E80C50B1F12001BFF4F7AF090728BF56
:1003B000A0E80C5048BF0CC05DF804EB890028BFD2
:1003C00040F8042B08BF704748BF20F8022B11F0FB
:1003D000804F18BF00F8012B704770477047704777
:1003E00010B500F07DF8006810BD10B5044600F0AF
:1003F00077F8046010BD00000FB4002300B589B089
:100400000CA900910B99CB60214B7B440693214BA7
:100410007B44079304236FF00042CDE901321E4A6A
:100420007A446B4608920246002004F0CEFE09B0E2
:100430005DF814FB70B506464FF0FF3015460C46CC
:10044000324686B00091CDE9010169460020049052
:1004500004A8FFF7D1FF02460498211825B108B17E
:10046000084600E020462860049800280DD0002AA5
:1004700002DD0098884208D03246081B6946009485
:10048000CDE9010404A8FFF7B7FF06B070BD000076
:10049000ED00000005010000C50000002DE9F0415D
:1004A00015460E46040002D12C6804B90BA4204660
:1004B00000F053F80444207870B12746314638469E
:1004C00000F03BF80444207810B1002004F8010B40
:1004D00038462C60BDE8F0810027F9E700000000F5
:1004E00000487047D402002010B5044600F06EF8B2
:1004F0000068005D00F0010010BD426842B1016873
:1005000011F8013B23B1521EC0E900121846704792
:100510000121C160881E704742685AB1C3680168F2
:1005200043B983688B4205D0491E521CC0E90012B2
:10053000002070474FF0FF30704730B503461D78FC
:100540001DB10A4603E0AC4201D1181A30BD12F8C1
:10055000014B002CF7D15B1CF1E730B503461D7849
:100560003DB10A4612F8014B1CB1AC42FAD15B1CFA
:10057000F5E7181A30BD000000487047D40200208B
:100580007546FFF7F9FFAE4605006946534620F071
:100590000700854618B020B5FFF768FEBDE820408B
:1005A0004FF000064FF000074FF000084FF0000B2F
:1005B00021F00701AC46ACE8C009ACE8C009ACE8E2
:1005C000C009ACE8C0098D467047000010B500F0C6
:1005D000CBFA001D10BD00BFCD4300002DE9FF4F39
:1005E00006468BB00878FF2806D0491C2D2805D078
:1005F00000244FF0000908E000200CE00124F8E797
:1006000009EB8903491C00EB43090878FF28F7D15F
:1006100014B1C9F100008146107800252C46AA4685
:1006200029462D2801D02B2804D1521C2D2813D067
:10063000002082468B461078FF280FD04FF0000C28
:100640000A21521CA5FB017804FB018105FB0C115A
:10065000C5194BEB0104EEE70120EAE7002108464B
:100660004FF00000BAF1000F02D000EB800040080C
:10067000C0F38157012F01DD4FF0FF370E9955EA86
:10068000040009EB01080BD04FF0020918F5FA7FBE
:1006900016DA4FEACA70002F706008DD012007E00B
:1006A0004FEACA70C6E900B00FB0BDE8F08F002075
:1006B0003060FFF715FFC0F800901821084616E0DB
:1006C000B8F5FA7F18DD002F02DAF748784401E028
:1006D000F6487844D0E90010C6E9001040EACA7034
:1006E0007060FFF7FDFEC0F80090142108460FB0BF
:1006F000BDE8F04F04F006BD002108464FF00000B1
:10070000B8F10001099002DAC7F1000200E03A46B0
:1007100001DAC8F1000106A800F02AFA06AB93E856
:10072000070003AB83E8070044F23E005BEA0401E4
:100730000090584604D144F21E012C465D460091BB
:10074000210C0904014306D10099240444EA15440C
:100750002D041039009104F07F41014306D1009926
:10076000240244EA15642D020839009104F0704116
:10077000014306D10099240144EA15742D01091F93
:10078000009104F04041014306D10099A40044EADD
:100790009574AD00891E009104F00041084304D116
:1007A00000986D196441401E00904FF001033A46D5
:1007B0006846B8F1000FCDE9014503A902DD00F05C
:1007C00026FF01E000F0F9FEBAF1000F04460D46E5
:1007D00001D084F00044002108464FF00000099940
:1007E00040F2FF77484010F00C0F07D124F0004092
:1007F000284303D0C4F30A50B84212D1FFF770FE69
:10080000C0F80090C4F30A50B8420AD1A84878440E
:10081000D0E90010C6E9001004F000410843706000
:1008200042E7C6E900543FE72DE9FF4F1F464FF06E
:10083000000A4FF0FF38454691B0D7E90146CDF8A0
:100840003CA000F091F9C0680168405C1090B96963
:1008500012986D1C8847396A814688470028F6D16E
:10086000B9F1FF3F0AD0002E24F4D06411DDB9F1B4
:100870002B0F08D0B9F12D0F0BD102E0404615B077
:1008800013E744F48064B96912986D1C8847761E9A
:100890008146600504A901D52D2000E02B20002E03
:1008A00001F1010B0DF130088DF810003FDDB9F1B9
:1008B000690F08D0B9F1490F05D0B9F16E0F02D018
:1008C000B9F14E0F1CD13B4601A8009580E85002BB
:1008D000DDE912126FF0020004F07BFCC11CCED1E6
:1008E0000EE0B96912986D1C884781461398761EF0
:1008F00044F4007405600F98401C002E0F9016DD24
:10090000B9F1300FEDD0B9F1780F02D0B9F1580F2D
:100910000DD10F9801280AD13B46CDE90054DDE9FD
:100920001212001F029604F052FCC11CA7D11099AC
:1009300089453ED144F0800406E01399681CAAF171
:10094000010A44F400740860B9696D1C1298761E9F
:10095000884730288146F0D02BE01099894505D191
:10096000200603D4761E44F0800418E0484603F0C5
:10097000D6FC08B3761E0DF123018B4544F40074B8
:1009800008D2A9F130000BF8010B200607D5AAF117
:10099000010003E0200602D40AF101008246A0050E
:1009A00002D51399681C0860B96912986D1C8847B4
:1009B0008146002ED1DC53E0002E51DDB9F1650FE8
:1009C00002D0B9F1450F4BD1A00549D5B9696D1CCD
:1009D0001298761E24F440748847002E81460CDD60
:1009E0002B2804D0B9F12D0F07D144F48074B969D4
:1009F00012986D1C8847761E8146E00501D52D2191
:100A000000E02B2108F8011BCDF8008021E0761EC4
:100A10000DF13901884544F400740CD2A9F130007D
:100A200010F0FF0088F8000002D10099884509D92C
:100A300008F1010806E0E00501D51E4801E042F298
:100A40000F708246B96912986D1C884781461398C9
:100A50000560002E04DD484603F061FC0028D6D175
:100A6000F96912988847FF2053468BF8000088F8F0
:100A7000000000200A900B9004AA0CA90AA8FFF716
:100A8000ADFDA00502D46FF00100F8E614F0240FCC
:100A900012D0E0071CD13868DDE90A12031D3B6063
:100AA0000068C0E9001213E00C4C0000FE4B00008F
:100AB000C24A0000F1D8FFFF0AA9684603F01CFCF7
:100AC000E00705D13868009A011D396000680260AE
:100AD0002846D4E610B50446AFF300802046BDE8B2
:100AE0001040FFF7AEBB00004FF0013C50F8042B64
:100AF00051F8043B9A4221D1A2EB0C03934313EA31
:100B0000CC1317D150F8042B51F8043B9A4215D15D
:100B1000A2EB0C03934313EACC130BD150F8042B34
:100B200051F8043B9A4209D1A2EB0C03934313EA18
:100B3000CC13DBD04FF00000704700BFD01A01BAD1
:100B4000B1FA81F101F0180122FA01F0CB40C1F1B4
:100B50002001DBB2C0B2C01A2CFA01F3D11A9143C2
:100B600011EAC311E6D1704700487047F402002033
:100B70002DE9F047814616468AB0354878440DC8BD
:100B80008DE80D0032487844801C03AC0DC884E821
:100B90000D0041F69B300844372190FBF1F290FBA9
:100BA000F1F5A5F1800501FB12041B3C02D564425E
:100BB000012000E00020DFF898A080460027FA44DA
:100BC000AAF1BE0A0EE0E0070AD03246684607EBFB
:100BD000470101230AEB810100F004FD8DE80700C5
:100BE00064107F1C002CEED1194F7F44AE3F19E0FA
:100BF000E80715D007EB04100DF1180A90E80E0075
:100C00008AE80E00C068F04201D198190890324677
:100C1000012306A903A800F0E5FC03AB83E8070065
:100C20006D10641C002DE3D14FF00103324669467C
:100C3000B8F1000F03A802D000F0AAFC01E000F018
:100C4000D1FCC9E90001C9F808200AB0BDE8F08765
:100C50001C47000001491820ABBEFEE72600020039
:100C60002DE9FF4F1F464FF03C0987B04FF000427F
:100C7000DDE9141001F10108DDF858A002EA405046
:100C80000390002005908346054604460490B96908
:100C9000461E08988847AAF1010A0290BAF1000F8F
:100CA0003BDD02982E2815D0102100F017FA0028FD
:100CB0002EDB4FF0010B0599014317D0B9F1000F5E
:100CC0000BDB4A46C11700F0F6F905430C43A9F1C6
:100CD000040905E0012004900BE008B145F001058E
:100CE00001200590049820B9361D02E0049800B157
:100CF000361FB969089808F101088847BBF1000F51
:100D0000AAF1010A0290C9D00999C1F80080C5E78B
:100D10000298702808D0502806D0F96908988847AA
:100D2000BBF1000F14D04FE0002002900120BBF176
:100D3000000F049009D0B969089808F101088847A4
:100D4000AAF10109B9F1000F07DCF9690898884791
:100D50006FF001000BB0BDE8F08F2B2804D02D28D8
:100D60000CD14FF0FF300490B969089808F10108E0
:100D70008847A9F10109B9F1000FE6DD411CE4D073
:100D80000A2100F0ABF90028DFDB029908F1010825
:100D900001EB810100EB41000290B9690898884796
:100DA0000A2100F09BF9099AA9F10109B9F1000F94
:100DB000C2F8008001DD0028E7DAF9690898884761
:100DC0000499029800FB016655EA040004D004F07F
:100DD0004041090002D006E0039898E0A40044EAEC
:100DE0009574AD00B61E04F00041080002D16D19E3
:100DF0006441761E159810F0240F03D04FF00B09B4
:100E00005C4803E04FF028096FF07D0082465645AC
:100E100007DAAAEB06018944B9F1410F01DD4FF071
:100E2000410901200021A9F1010200F044F9024624
:100E300028400B462140084301D0012100E0002159
:100E4000501E029143F1FF3128402140084301D058
:100E5000012000E000200299834651EA0B014FD0A7
:100E6000002108464FF00000039900F4400039B11A
:100E700000EB80004FF4400100EBD07001EA60000D
:100E80008015012802DD4FF0FF3000E013D0401C38
:100E900036D0029860B3BBF1000F0CD14A46012056
:100EA000002100F008F928402140084301D001202A
:100EB00000E00020E0B101204A46002100F0FBF8EC
:100EC000034640190A4661412D1A8C4111D3B9F1EC
:100ED000400F09DD159810F0240F02D0AAF1340656
:100EE00003E0AAF1170600E0761C00254FF000444D
:100EF00006E05B1E42F1FF3220EA030521EA02040C
:100F0000CAF10100B04206DA1B4903980843019078
:100F1000002000900EE0039AC4F3D321E80A0A43AC
:100F2000164940EA44500A433146CDE9000268467A
:100F300003F0EBF9159810F0240F0BD01598C007AB
:100F400015D13868DDE90012031D3B600068C0E977
:100F500000120CE002A8694603F0CEF91598C0070C
:100F600005D13868029A011D396000680260404668
:100F7000F0E6000002FCFFFF0000F07F0000F03F01
:100F80002DE9FF4F92461D4685B04FF00041DDE947
:100F9000124BDDE914727F1E01EA4B50414940F0CB
:100FA000FF4940EA0108002122F02000492804916D
:100FB00002D04E2828D04CE03BA0012607C88DE87F
:100FC0000700A9690698641C88477F1E014606D45D
:100FD0001DF8060018B121F0200181420BD0E9690B
:100FE00006988847032E34D0082E32D06FF00100C7
:100FF00009B0BDE8F08F761C032E01D0082EE0D199
:10100000601CCAF80000DCE7A9690698641C8847E0
:101010007F1E2AD420F02000412826D1A9690698F5
:10102000641C88477F1E20D420F020004E281CD14D
:10103000A9690698641C88477F1E48F4002849F473
:101040008009CAF8004001D4282806D0E96906982A
:1010500088475FEACB7012D022E0A9690698641C29
:1010600088477F1E01D4002803DAE969069888477B
:10107000BCE72928F1D1641CCAF80040E9E71BF05D
:10108000240F07D028680499031D2B600068C0E96D
:10109000001805E02868021D2A600068C0F800906A
:1010A0002046A5E70000F07F494E46494E49545975
:1010B000000000007047B2F120030AD5C2F12003FE
:1010C00001FA02F120FA03F300FA02F041EA030107
:1010D000704700FA03F14FF0000070473A2800D241
:1010E000303820F02002412A01D3A2F13700884293
:1010F00001D34FF0FF30704720F07F4C80EA0300AF
:1011000023F07F47ACEB070303F57C5300F000406E
:1011100003F1FF032DE980494FEA154B09B44FEA6B
:10112000144325EA0B4E24EA03480FF2042606EB8B
:10113000132749083E785FEA320203FB0667C7F5CA
:10114000000707FB06F64FEA54374FEAD64606F18A
:10115000020607FB066CCCF1005C4FEA1C472CEA48
:10116000074C07FB06F40CFB06F504EB15464FEAAB
:10117000961634BF00204FF000404FEAD13706FBEF
:1011800007FC4FEA1C4C0CFB0BF7D21B03FB0CF7C4
:1011900061EB07010CFB0EF7B0EB074072EB174257
:1011A0000CFB08F734BFA2EB0742B2EB074261EB3E
:1011B00017414FEA0C444FEA910706FB07FC4FEA40
:1011C0001C4C0CFB0BF7B0EBC74072EB573203FB28
:1011D0000CF734BFA2EBC742B2EBC74261EB573109
:1011E0000CFB0EF7B0EBC70072EB57720CFB08F765
:1011F00034BFA2EBC702B2EBC70261EB5771039F8A
:101200004FEA816141EA921104EBCC044FEAD137F5
:101210004FEA826206FB07FC42EA90124FEA8060C6
:101220004FEA1C4C0CFB0BF7D21B03FB0CF761EBDA
:1012300007010CFB0EF7B0EB074072EB17420CFBFB
:1012400008F734BFA2EB0742B2EB074261EB17414C
:101250004FEA8C554FEA910704EB9C2406FB07FCF0
:101260004FEA1C4C0CFB0BF7B0EBC74072EB57324C
:1012700003FB0CF734BFA2EBC742B2EBC74261EBF2
:1012800057310CFB0EF7B0EBC70072EB57720CFB3B
:1012900008F734BFA2EBC702B2EBC70261EB57718C
:1012A00015EB4C254FEA816141EA92114FEA8262C7
:1012B0004FEAD13742EA901206FB07FC44F10004E2
:1012C0004FEA80604FEA1C4C0CFB0BF7D21B03FB70
:1012D0000CF761EB07010CFB0EF7B0EB074072EB6C
:1012E00017420CFB08F734BFA2EB0742B2EB0742F0
:1012F00061EB174115EB1C154FEA813141EA924130
:101300004FEA823242EA90424FEA80304FEA0C764E
:1013100044F1000448EA03434EEA0B484FF0000E44
:10132000B2EB080C71EB030724BF624639464EEB63
:101330000E0E4FF0000B0018524149414BEB0B0BC6
:10134000B2EB080C71EB03077BF1000B24BF624684
:1013500039464EEB0E0E4FF0000B0018524149413A
:101360004BEB0B0BB2EB080C71EB03077BF1000BA3
:1013700024BF624639464EEB0E0E51EA020718BFF3
:1013800046F0010616EB0E7655F1000254F100010D
:1013900003D5BDE88901BDE80088BDE88901BDE845
:1013A0000048B619524141EB0101A3F10103704716
:1013B00080807F7E7D7C7B7A797877767675747392
:1013C000727171706F6E6E6D6C6C6B6A6A69686851
:1013D000676666656464636362616160605F5F5EE7
:1013E0005E5D5D5C5C5B5B5A5A595958585757565D
:1013F00056555555545453535252525151505050C2
:101400004F4F4F4E4E4D4D4D4C4C4C4B4B4B4A4A13
:101410004A49494948484847474747464646454557
:101420004544444444434343434242424241414190
:1014300046EA0646A3F570534FEA164646EA425678
:101440004FEAD22242EA415210B54FEAD121A3F12C
:10145000010300F02FF820F0004000F1020C00F032
:10146000004701EB00501146BCF5006F40EA070051
:1014700000D210BDBAF1000F0AD01CB503B44FF072
:1014800004004FF004014FF000000FBCBDE8104015
:101490004FF00001BBF1010FB9BF04484FF0FF311D
:1014A0000348002140EA070010BD00BFFFFFEF7FA7
:1014B0000000F07F002B9C4630D477002BD01CB569
:1014C0004FEA370703B44FF010004FF01001BAF1A4
:1014D000000F06D0BCF1000FDCBF40F0080040F068
:1014E00008014FF000000FBCBDE810400BF1010BEC
:1014F000BBF1010F08BF5FEA170722BF12F101021B
:1015000011F101014FF0004143F1000300F00040F0
:1015100043EA00007047F9D35708D0E746EA064689
:1015200013F1400F4FEA16461FDD13F1200FDFBF06
:1015300016430A46002120335B42BED0C3F1200788
:1015400046EA064602FA07F74FEA164646EA070653
:10155000C3F1200722FA03F201FA07F721FA03F197
:101560004FF0000342EA0702A7E746EA020646EA0E
:1015700006464FEA164646EA0106BCBF46EA06465C
:10158000360C4FF000034FF000024FF0000194E7DB
:101590002DE9804C9A46934670B491E8380007C80C
:1015A00031EA400C48BF34EA430C03D5FFF7A4FDF1
:1015B000FFF780FFF0BCBDE8008C2DE9804C9A4617
:1015C000934670B491E8380007C831EA400C48BF30
:1015D00034EA430C03D5FFF78FFDFFF729FFF0BC7A
:1015E000BDE8008C2DE9804C9A46934670B491E892
:1015F000380007C810F0804F08BF13F0804F03D1A8
:1016000000F01AF8FFF756FFF0BCBDE8008C2DE99A
:10161000804C9A46934670B491E8380007C810F0A1
:10162000804F08BF13F0804F03D100F005F8FFF79B
:10163000FFFEF0BCBDE8008C20F07F4780EA03008D
:1016400023F07F4C07EB0C03A3F57C5300F0004024
:10165000A3F1FE0392F0000F00F0B38095F0000FAD
:1016600000F077802DE901494FEA11404FEA144616
:1016700021EA004800FB06FC24EA064708FB06F6C0
:1016800007FB08F800FB07F718EB06484CEB164C75
:101690004FEA124B18EB07484FEA15464CEB174040
:1016A00022EA0B4E0BFB06FC25EA06470EFB06F66C
:1016B00007FB0EFE0BFB07F71EEB064E4CEB164C22
:1016C0004FF000061EEB074E4CEB174B18EB0B08C8
:1016D00040F1000018EB0E0B58EB000840F1000041
:1016E0008F1A4FF000013CBFC943661B14BFB5EB16
:1016F000040C00213CBFC943F61B4FEA17444EEAD5
:101700008E0E27EA04454FEA1C4704FB07622CEAC9
:10171000074C05FB07F70CFB05F604FB0CFC16EB6E
:10172000074642EB174216EB0C4642EB1C421BEB02
:10173000060658EB0202414146EA9E0601D5BDE885
:101740000189B619524141EB0101A3F10103BDE842
:1017500001894FEA14454FEA114724EA054621EA78
:10176000074C05FB07F406FB07F70CFB06F105FB2E
:101770000CFC11EB074144EB17444FEA124711EB05
:101780000C4144EB1C4422EA074C05FB07F206FB24
:1017900007F70CFB06F605FB0CFC16EB074642EBC5
:1017A000174216EB0C4642EB1C456A1854F1000137
:1017B00048BF7047B619524141EB0101A3F1010343
:1017C000704795F0000F37D04FEA11424FEA1447A7
:1017D00021EA024624EA074C02FB07F106FB07F761
:1017E0000CFB06F402FB0CFC14EB074441EB174125
:1017F0004FEA154714EB0C4441EB1C4125EA074C1A
:1018000002FB07F506FB07F70CFB06F602FB0CFCD8
:1018100016EB074645EB174516EB0C4645EB1C420D
:10182000121951F1000148BF7047B619524141EBFE
:101830000101A3F1010370474FEA14454FEA114734
:1018400024EA054621EA074C05FB07F106FB07F7EA
:101850000CFB06F24FF0000605FB0CFC12EB0742F6
:1018600041EB174112EB0C4251EB1C4148BF704752
:10187000921841EB0101A3F101037047FEE77047A5
:10188000704790F83510022903D08021416501206E
:101890007047052180F835100068016821F00101CA
:1018A000016000207047000070B5044600F0DCF8CD
:1018B0000546601C02D004480078044400F0D4F8C7
:1018C000401BA042FAD370BD440000202DE9F84F20
:1018D000DFF860B100224FF001084FF0030A4FF02B
:1018E0000F090BF1040E00BF0B6808FA02F4234045
:1018F000A3426ED14D68022D01D0122D0ED1D50814
:1019000000EB850CDCF820505607F70E09FA07F6B5
:10191000B5430E69BE402E43CCF8206006685500E2
:101920000F790AFA05FC07F0030726EA0C06AF4018
:10193000374307604E68012E05D0022E03D0112ECA
:1019400001D0122E0ED18668CF6826EA0C06AF4071
:10195000374387604668A6430C79C4F3001494406B
:1019600034434460C6688C6826EA0C06AC403443B5
:10197000C4604C68E40056D52F4C256845F480457A
:101980002560246822F0030504F4804400942B4C65
:101990002E19D6F8084895072F0F09FA07F5AC431A
:1019A000274DA84201D1002515E0264DA84201D1BE
:1019B000012510E0244DA84201D102250BE0234D62
:1019C000A84201D1032506E0214DA84202D10425F9
:1019D00001E028E00725BD402543C6F80858DBF89C
:1019E00000405D464E689C43F60300D51C432C60C6
:1019F000DEF8004075464E689C43B60300D51C4394
:101A00002C600C4D08352C684E689C43F60200D5BE
:101A10001C432C60074D0C352C684E689C43B60265
:101A200000D51C432C60521C102AFFF45DAFBDE8AA
:101A3000F88F0000003C0140443802400030014073
:101A4000000002400004024000080240000C024076
:101A5000001002400069084000D0012070470AB120
:101A6000816170470904FBE7014880687047000006
:101A70004400002070B504001BD094F83D00002500
:101A800020B984F83C50204600F042FA242084F823
:101A90003D002068016821F00101016000F0A0FB19
:101AA0004D4A6168914201D84C4900E04C49884256
:101AB00001D2012070BD4B492368B0FBF1F15E6893
:101AC00026F03F060E435E606368934206D94FF4EA
:101AD000967359434FF47A73B1FBF3F12368491CB1
:101AE0001E6A26F03F06314319626168914210D8A0
:101AF0004900401EB0FBF1F2521CC2F30B02042A53
:101B000001D2042022E0B0FBF1F0401CC0F30B0036
:101B10001CE0A368F3B301EBC10202EB0116421E05
:101B2000B2FBF6F2521C42F48042120549D093B344
:101B300001EBC10202EB0111401EB0FBF1F0401CB1
:101B4000C0F30B0040F4804040F400402168CA69B3
:101B50004CF6FF739A431043C861D4E90701084368
:101B600021680A6822F0C00210430860D4E903012A
:101B700001432068826848F2FF339A431143816031
:101B8000D4E9050108432168CA6822F0FF02104326
:101B9000C86001E00EE016E02068016841F0010134
:101BA00001602564202084F83D00256384F83E50C0
:101BB000002070BD01EB4106421EB2FBF6F2521C42
:101BC000B3E70120C2E701EB4101401EB0FBF1F099
:101BD000401CC0F30B00B7E7A086010080841E0004
:101BE00000093D0040420F002DE9FF4F83B09A46A7
:101BF000DDE9119793460446DDF84080FFF734FF96
:101C0000054694F83D00202870D11923012271491E
:101C10002046009501F06AFB0028F5D194F83C00BD
:101C2000012863D0012084F83C0020680168C907BE
:101C300003D1016841F0010101602068016821F4CD
:101C400000610160222084F83D00402084F83E00BD
:101C500000262664C4F82480A4F82A90608D20858C
:101C60005D48E062CDE9007553465A462046049926
:101C700001F058FA00287CD1208DD0B1012821D064
:101C80000228206824D0416980690090208D0328B3
:101C900069D801282BD0514902283B464FF0000259
:101CA000009559D08846204601F020FB002860D1DD
:101CB0003CE02068416981690091016841F400714C
:101CC000016077E02068016821F480610160F0E73D
:101CD000016821F4806101602068016841F40061BD
:101CE0000160206841698069009063E06FE02A46E6
:101CF0003946204601F079FB98BB20680069616A8B
:101D000008704EE02068016841F4007101602068AD
:101D10000069616A0870606A401C6062218D491E1A
:101D20002185618D491E6185216838E02068016840
:101D300021F48061016020680069616A0870606A4E
:101D4000401C6062208D401E2085608D401E608595
:101D50003B46002241460095204601F0C7FA00B9F3
:101D6000D0E706E0FFE72A463946204601F03DFB72
:101D700018B1012007B0BDE8F08F20680069616AE2
:101D80000870606A401C6062218D491E2185618D4A
:101D9000491E618521684A69D24352070AD40969FC
:101DA0000170606A401C6062208D401E2085608D3D
:101DB000401E6085208D00287FF468AF202084F8C5
:101DC0003D0084F83E6084F83C600020D2E70220A9
:101DD000D0E70000020010000000FFFF0400010037
:101DE0002DE9FF4F83B09A46DDE9119793460446EB
:101DF000DDF84080FFF738FE054694F83D002028C6
:101E00007FD11923012240492046009501F06EFA46
:101E1000002876D194F83C00012872D0012084F883
:101E20003C0020680168C90703D1016841F0010145
:101E300001602068016821F400610160212084F8BC
:101E40003D00402084F83E0000262664C4F824802B
:101E5000A4F82A90608D20852C48E062CDE90075B9
:101E600053465A462046049901F0D0F970B930E043
:101E70002A463946204601F0EBFA58B1206C042876
:101E800004D12068016841F400710160012007B0AD
:101E9000BDE8F08F606A216800780861606A401CC4
:101EA0006062218D491E89B22185628D521E628534
:101EB00022685369DB435B070BD469B1007810617A
:101EC000606A401C6062208D401E2085608D401E2F
:101ED0006085208D0028CBD12A463946204601F066
:101EE000DFF90028CAD154F83D0B016841F40071B4
:101EF0000160202004F81E09E67766770020C6E717
:101F0000FFE70220C3E70000020010000000FFFF0F
:101F100010B586B0044614216846FEF737FA144916
:101F20002068884221D11348016841F00201016014
:101F30000068694600F0020005904FF44070009080
:101F400012200190012002900320039004200490AD
:101F50000948FFF7BBFC07481030016841F4001145
:101F60000160006800F40010059006B010BD00008C
:101F700000540040303802400004024002488168AA
:101F80000278114481607047440000200B4810B56E
:101F9000016841F400710160016841F480610160F1
:101FA000016841F480710160032000F06FF80020A7
:101FB00000F006F800F024F8002010BD003C0240BC
:101FC00070B50D4D04464FF47A712878B1FBF0F0EE
:101FD0000A490968B1FBF0F000F0E2FA48B9102CA8
:101FE00007D200222146501E00F030F800206C601D
:101FF00070BD012070BD0000440000205000002092
:102000000A4808B5016841F480410160006800F4A5
:10201000804000900548001F016841F08051016038
:10202000006800F08050009008BD00004438024075
:10203000002809DB00F01F020121914040098000C7
:1020400000F1E020C0F8001170470000F0B40E4B22
:102050001B680C46C3F30223C3F10705042D00D906
:102060000425191D072901D2002300E0DB1E0126EB
:1020700006FA05F1491E214099409E40761E164001
:102080003143F0BC02F005B80CED00E0064900F069
:10209000070208684FF6FF03184040EA0220034A8F
:1020A00010430860704700000CED00E00000FA05E6
:1020B0002DE9F0470E46050065D0DFF81481D8F809
:1020C0000000F7B200F00F00B04207D288F80070AD
:1020D000D8F8000000F00F00B04254D128683D4C01
:1020E000810712D5400703D5206840F4E0502060F6
:1020F0002878000703D5206840F4604020602068FD
:10210000A96820F0F000084320602878C0072DD08F
:10211000304968680839012812D0022813D00328F2
:1021200011D00968890700292DDA216821F00301FF
:1021300001432160FFF798FC814641F2883A0EE0A6
:1021400009688903EFE709688901ECE7FFF78CFC70
:10215000A0EB0901514502D90320BDE8F0872068B2
:10216000696800F00C00B0EB810FEFD1D8F80010D7
:10217000404601F00F01B14207D90770006800F036
:102180000F00B04201D00120E7E72878400705D5CD
:102190002068E96820F4E0500843206028780007B0
:1021A00006D52068296920F4604040EAC10020601B
:1021B00000F036F82168084AC1F30311515CC840A9
:1021C000064908600020FFF7FBFE0020C5E700007D
:1021D000003C02400838024006520008500000202F
:1021E0000448054900680968044AC1F38221515C2A
:1021F000C8407047500000200838024016520008BE
:102200000448054900680968044AC1F34231515C39
:10221000C84070475000002008380240165200089D
:10222000154810B5006810F00C02144813D014497A
:10223000042A0FD0082A0ED10F4C241F22682368CD
:1022400002F03F025B0207D52068C0F38810A0FBB4
:10225000010106E0084610BD2168C1F38811A1FB09
:1022600000010023FEF714F82168C1F30141491C65
:102270004900B0FBF1F010BD083802400024F40022
:1022800040787D012DE9F84F050076D02878DFF8F9
:10229000F8B2BE4CC00749D0DBF800105846C1F375
:1022A0008101012908D00068C0F3810002280AD109
:1022B000201D0068400206D52068800336D5686876
:1022C0000028E2D032E06868B0F5803F10D0B0F569
:1022D000A02F206810D020F480302060206820F4E7
:1022E000802020606868A0B1FFF7BEFB06460CE0C6
:1022F000206840F48030F4E740F480202060F7E765
:10230000FFF7B2FB801B642873D820688003F7D5E1
:102310000CE0FFF7A9FB064605E000BFFFF7A4FBB2
:10232000801B6428F0D820688003F7D42878DFF871
:10233000608280074FF000093ED5DBF80010584658
:1023400011F00C0F09D00068C0F3810002280BD1F6
:102350008D48001F0068400206D42068800715D50C
:10236000E868012809D111E0E868B8B10120C8F88F
:102370000000FFF779FB064605E002E1FFF774FB7A
:10238000801B0228C0D820688007F7D520682969FB
:1023900020F0F80040EAC10020600DE0C8F800908D
:1023A000FFF762FB064604E0FFF75EFB801B022896
:1023B0001FD820688007F7D42878000722D5724EEE
:1023C000744869696C3671B101210160FFF74CFBFB
:1023D000074604E0FFF748FBC01B022809D8306815
:1023E0008007F7D50EE0C0F80090FFF73DFB0746E9
:1023F00005E083E0FFF738FBC01B02287ED8306879
:102400008007F7D42878400768D5DFF87CA100273B
:102410000AF1380ADAF80000C0000BD4DAF800102C
:1024200041F08051CAF80010DAF80000012700F0EE
:1024300080500090584E3068C00510D4306840F489
:1024400080703060FFF710FB009005E0FFF70CFB99
:102450000099401A022851D83068C005F6D54A4E76
:10246000A868683601280FD00528306810D020F001
:1024700001003060306820F004003060A868B8B116
:10248000FFF7F2FA00900FE0306840F00100F4E747
:1024900040F004003060F7E7FFF7E6FA0099411AD0
:1024A00041F28830814264D830688007F4D50EE06C
:1024B000FFF7DAFA009007E0FFF7D6FA0099411A21
:1024C00041F28830814254D830688007F4D42FB16B
:1024D000DAF8001021F08051CAF80010A869C0B3E2
:1024E000DBF80010C1F3810102294AD002284846D6
:1024F00007D0C8F86000FFF7B7FA00E039E00546FA
:102500003AE04746C8F86000FFF7AEFA064604E036
:10251000FFF7AAFA801B02282BD820688001F7D485
:10252000D5E907010843A96A1C4A490802EB0141A1
:102530006A6A41EA8211084395F82C1040EA016169
:102540001148001F016001203866FFF78DFA05462B
:1025500005E014E0FFF788FA401B022809D820683C
:102560008001F7D50BE000BFFFF77EFA401B022881
:1025700002D90320BDE8F88F20688001F4D4002040
:10258000F8E70120F6E70000083802400038024072
:1025900000004742800E4742007000400000FFFFED
:1025A00010B5401EB0F1807F01D3012010BD4FF067
:1025B000E02460610F21601701F06BFD0020A06135
:1025C00007202061002010BD7047704770B590F85B
:1025D0003C20012A19D0012400F83C4F022242700D
:1025E00050F83C3C5A689D6822F070060A684968B9
:1025F000324325F0800529435A6050F83C2C916005
:10260000447000210170084670BD022070BD10B5F5
:10261000040003D094F83D0010B107E0012010BD84
:10262000002084F83C00204600F00CF8022084F8DA
:102630003D00211D206801F00BFA012084F83D00C7
:10264000002010BD08B50068B0F1804F12D10A48D3
:10265000016841F0010101600068002200F0010002
:10266000009011461C20FFF7F1FCBDE808401C203B
:10267000FFF7DEBC08BD0000403802400168CA68B0
:1026800042F00102CA600068816801F00701062972
:1026900003D0016841F0010101600020704770B56E
:1026A000044690F83C00012817D0012584F83C50DE
:1026B000022084F83D002068826822F0770222F42C
:1026C0007F4282600868502830D00DDC20284DD031
:1026D00005DC98B310283BD148E0022070BD3028BB
:1026E00044D0402834D139E0602828D0702806D062
:1026F000B0F5805F2CD0B0F5005F29D10AE0CB683F
:10270000D1E90121206801F0FCF92068816841F0DD
:10271000770109E0CB68D1E90121206801F0F1F9E6
:102720002068816841F48041816011E0CA6849688D
:10273000206801F09BFA5021206807E016E0CA6883
:102740004968206801F0A3FA6021206801F0E3F9EC
:1027500084F83D50002084F83C0070BDCA68496888
:10276000206801F083FA40212068EFE722680146E3
:102770001046EBE72DE9F0410D46040003D094F834
:102780003D0018B108E00120BDE8F081002084F888
:102790003C00204600F03AF8022084F83D00206812
:1027A000816844F2070291438160211D206801F095
:1027B0004FF9226890689169166A2B68AF690343E4
:1027C00040F20330814341EA0721A868EF690843DA
:1027D0004FF6FC418843E96840EA07200143286935
:1027E0002F6A000140EA0730084369686D6926F0E6
:1027F000AA0646EA0515294393602268906120687D
:102800000162012084F83D000020BDE7F0B587B0EB
:10281000044614216846FDF7B9FD21481F4F26687C
:102820001F491038C025022201230324BE4217D1BC
:102830000E6846F002060E60096801F0020105917B
:10284000016841F001010160006801AE009586E871
:102850001C0000F00100CDE904206946114819E090
:10286000114FBE4218D10E6846F004060E6009688A
:1028700001F004010591016841F002010160006866
:1028800001AE009586E81C0000F00200CDE90420AE
:1028900069460648FFF71AF807B0F0BD000400408B
:1028A000403802400000024000080040000402409E
:1028B00010B50446006891B1042904D0012200211A
:1028C00001F012F9206801225FF0040101F00CF917
:1028D0002068016841F001010160002010BD012263
:1028E0000021F3E7704770B50446006801694FF0B6
:1028F0000005C943890715D4C168C943890711D4A4
:10290000E91E016101202077206880698007204648
:1029100002D0FFF7E7FF04E000F0C2F8204600F025
:1029200057F9257720680169C943490717D4C16859
:10293000C943490713D46FF00401016102202077D5
:102940002068806910F4407F204602D0FFF7CAFF5C
:1029500004E000F0A5F8204600F03AF92577206859
:102960000169C943090716D4C168C943090712D4CC
:102970006FF008010161042020772068C06980079A
:10298000204602D0FFF7AEFF04E000F089F82046B1
:1029900000F01EF9257720680169C943C90617D4DC
:1029A000C168C943C90613D46FF010010161082042
:1029B00020772068C06910F4407F204602D0FFF7DE
:1029C00091FF04E000F06CF8204600F001F9257753
:1029D00020680169C943C90708D1C168C943C9074B
:1029E00004D1891E0161204600F010F920680169B8
:1029F000C943090609D4C168C943090605D46FF063
:102A0000800101612046FFF7DFFD20680169C943AD
:102A1000490609D4C168C943490605D46FF040018D
:102A20000161204600F0D0F920680169C943890698
:102A30000BD4C168C943890607D46FF02001016136
:102A40002046BDE87040FFF7C0BD70BD10B586B030
:102A5000044614216846FDF799FC0E492068884217
:102A600015D10D480021026842F0010202600068A1
:102A700000F0010005900C2000900220CDE901013A
:102A80000320CDE9031069460448FEF71FFF06B096
:102A900010BD0000004001403038024000000240FC
:102AA000704770B5044690F83C000D4601280DD0E3
:102AB000012684F83C60022084F83D0042B1042ADB
:102AC00018D0082A2AD00C2A4DD139E0022070BD36
:102AD000206801F029F82068816941F008018161CE
:102AE0002068816921F004018161206881692A6977
:102AF000114311E0206801F03FF82068816941F43A
:102B0000006181612068816921F4806181612068B0
:102B100081692A6941EA0221816124E0206801F08B
:102B200057F82068C16941F00801C1612068C16996
:102B300021F00401C1612068C1692A69114311E0D3
:102B4000206801F071F82068C16941F40061C16139
:102B50002068C16921F48061C1612068C1692A6966
:102B600041EA0221C16184F83D60002084F83C0004
:102B700070BD10B5040003D094F83D0010B107E01B
:102B8000012010BD002084F83C00204600F00CF825
:102B9000022084F83D00211D206800F059FF01202B
:102BA00084F83D00002010BD08B500680649884241
:102BB00008D10648016841F480310160006800F4E2
:102BC0008030009008BD00000040014044380240C1
:102BD0007047000010B504460068012200F084FF31
:102BE00009492068884203D1416C41F400414164A5
:102BF0002068816801F00701062903D0016841F0CF
:102C000001010160002010BD000001402DE9F047E6
:102C1000DFF874A15D4FDFF878812DED028B00683D
:102C2000B0F1804F7ED198F800004546401C88F8EE
:102C3000000058480068406AA8F80600554840302F
:102C40000068406AA8F80A0001F070FB524C534932
:102C5000E0680968524E401A524A2061F1681268D1
:102C6000891A3161616994EC030A01F027FD44F689
:102C70002061C1F10009A061884201DDA16103E08A
:102C8000484501DAC4F818909AED000A97ED008AD9
:102C9000454920EE080A10EE100A85ED040A434D5E
:102CA00088420CD9B5F9000002F09BF89FED401B5B
:102CB00053EC112B02F0E8F802F064F82880B5EE2E
:102CC000C08AB0EE000AF1EE10FA04DCB5EEC08A5C
:102CD000F1EE10FA0CD2B5F9000000EE900AF8EE11
:102CE000E00A48EE000ABDEEE00A10EE100A288065
:102CF000B5F9001047F23050814204DCB5F90010FC
:102D00004846814200DA2880B5F90010A0690844DD
:102D100049F64041B061884202DC4942884200DA0B
:102D2000B16100E01CE020696061306970610022DF
:102D30002149224800F026FC1F48F1EE040A9FEDCD
:102D4000201A90ED020A1F4860EE200A80EE810AE8
:102D5000D0ED000A30EEC00A80ED000A87ED000ACF
:102D600098F800104046C82909D300210170C18895
:102D700001814189818197ED000A8AED000ABDEC4D
:102D8000028BBDE8F0870000280000201C00002016
:102D900030000020D40100207C000020180000201A
:102DA0009800002020000020000020C12C000020FE
:102DB0009A9999999999C9BF58000020400100201B
:102DC00000007A44240000207047704770B5026804
:102DD00004461068D168536910F00F0F50D003F00B
:102DE000010501F4907635435DD0C20705D0CA05D0
:102DF00003D5E26B42F00102E263420705D5DA0730
:102E000003D0E26B42F00202E263820705D5DA07E3
:102E100003D0E26B42F00402E263020705D5DA0751
:102E200003D0E26B42F00802E263E26B002A33D087
:102E3000800604D5880602D5204600F050FF2068A1
:102E40004069E16BC0F38010090700D428B3204625
:102E500000F037FF2068416949061AD5416921F021
:102E600040014161606BA0B11B490165606BFEF7D9
:102E700008FD002810D0606B016DBDE87040084768
:102E8000830610D58B060ED52046BDE8704000F0B5
:102E900026BF2046FFF799FF70BD2046FFF795FF3C
:102EA0000020E06370BD030606D50B0604D520465E
:102EB000BDE8704001F0B4B84006F3D54806F1D53E
:102EC000D168204621F04001D160202184F83910DA
:102ED00000F0EEF870BD0000B33C000870B50400CF
:102EE00004D094F83900002510B106E0012070BD2F
:102EF00084F83850204600F023F8242084F8390064
:102F00002068C16821F40051C160204600F032FF02
:102F10002068016921F4904101612068416921F034
:102F20002A0141612068C16841F40051C160E56334
:102F3000202084F8390084F83A00002070BD000099
:102F400010B586B0044614216846FDF71FFA1849EB
:102F50002068884229D11748016841F010010160BA
:102F6000006800F01000059012481438016841F024
:102F7000010101600068694600F0010005904FF40E
:102F8000C060009002200190012002900320039075
:102F9000072004900848FEF799FC002211462520DE
:102FA000FFF754F82520FFF743F806B010BD0000E6
:102FB00000100140443802400000024090F83A30CE
:102FC000202B22D1F9B1F2B190F83830012B1CD06E
:102FD00081628285C2850021C163222280F83A2065
:102FE00080F838100168CA6842F48072CA600168CB
:102FF0004A6942F001024A610068C16841F020015B
:10300000C160002070470120704702207047000017
:10301000214910B5C8780022204B632809D0CC780C
:1030200048780344401C48701C70C878652807D055
:103030002AE000201A54401CC0B26428FAD323E0CE
:103040004A7017A11548FDF79BF901F0B1F851EC52
:10305000100B01F097FE114C6434206011A1002088
:10306000FDF78EF901F0A4F851EC100B01F08AFE87
:1030700060600DA10020FDF783F901F099F851EC93
:10308000100B01F07FFEA06003490122BDE8104053
:10309000C91C0648FFF792BF14000020D000002092
:1030A000740000006200000065000000940200202F
:1030B000704700001FB54FF47A72032103A88DE812
:1030C000070001230A223C210948FEF78DFD9DF8E7
:1030D0000C00482807D19DF80D00342803D19DF835
:1030E0000E00332802D0002004B010BD0120FBE701
:1030F00040010020FEE701684A69D24352050FD41F
:103100006FF480624A61002140F8301F2022427330
:103110008173026942F00402026101730120704769
:10312000002070472DE9F84F0446006889460B9D42
:1031300001689846174641F4806101602068016883
:1031400041F48071016000954FF0011A0022514650
:1031500020460A9B00F0CAF8002853D1216809F0E4
:10316000FE0008610AF1010B2B46594620460A9AD7
:1031700000F0F0F8F0BB20684169806900902A46B1
:1031800020460A9900F064F940B1206C042839D136
:103190002068016841F40071016033E0FEB2B8F1CB
:1031A000010F09D02168380A08612A4620460A9989
:1031B00000F04EF90028E8D1206806612A46204632
:1031C0000A9900F045F90028DFD12068016841F430
:1031D0008071016000950022514620460A9B00F054
:1031E00085F838B9216809F0FF0040F00100086156
:1031F0002B4600E006E0594620460A9A00F0AAF85D
:10320000002800D00120BDE8F88F00002DE9F84328
:10321000044600680D46DDE90897016898461646A1
:1032200041F4807101604B4600224FF001112046AD
:10323000009700F05BF8E0B9216805F0FE00086136
:103240003B464A461549204600F084F888B9206874
:103250004169806900903A464946204600F0F8F8F6
:1032600050B1206C042804D12068016841F4007139
:1032700001600120BDE8F883F5B2B8F1010F09D073
:103280002168300A08613A464946204600F0E0F8D5
:103290000028E6D1206805610020EBE7020001006C
:1032A00070B516460D4604460DE02046FFF723FF95
:1032B00008B1012070BD681C05D0FEF7D5FB801B4E
:1032C000A84207D835B120684069C0434007ECD414
:1032D000002070BD002044F8300F20216173A073DE
:1032E000216941F0200121612073E2E72DE9F047D7
:1032F0001E4690460D460446C1F30747DDF8209070
:1033000008E0701C06D0FEF7AFFBA0EB0900B0424E
:103310000FD876B12068012F18D0806925EA000007
:103320000004000C14D000214145EAD00020BDE883
:10333000F087002044F8300F20216173A0732169C9
:1033400041F02001216120730120F0E74069E5E7A9
:103350000121E9E72DE9F0479A4691460E460446D9
:1033600000254FF02008C1F3074725E02068406999
:10337000C043400514D42068016841F40071016025
:1033800021686FF480604861256384F83D8084F88B
:103390003E50206C40F00400206484F83C501FE054
:1033A000B9F1FF3F08D0FEF75FFBA0EB0A014945EA
:1033B0000CD8B9F1000F09D02068012F13D0806913
:1033C00026EA00000004000C0BD0CFE744F8305F81
:1033D00084F80D80A573206940F0200020612573DA
:1033E0000120BDE8F0874069EAE72DE9F0410025BA
:1033F00090460E460446202717E04069C043C006A9
:103400000CD454F8301B6FF01000486144F8105988
:103410006777A577206A2062257717E0FEF724FBFF
:10342000A0EB0800B04208D83EB120684169C9430A
:103430004906E2D40020BDE8F08144F8305F6773AC
:10344000A573206940F02000206125730120F2E778
:1034500070B516460D4604460DE02046FFF74BFEBC
:1034600008B1012070BD681C05D0FEF7FDFA801B75
:10347000A84207D835B120684069C0430006ECD4A3
:10348000002070BD002044F8300F20216173A0732C
:10349000216941F0200121612073E2E72DE9FF411C
:1034A000074600208DF80C00012503AE4FF47A7416
:1034B0000096CDE901542B466A22D0213846FEF70A
:1034C0008FFC02208DF80C000096CDE901540123F9
:1034D0003722D0213846FEF783FCBDE8FF812DE975
:1034E000F04786B08246012503A8CDE9000598463D
:1034F0001746894600264FF47A748DF80C602B46E7
:103500007522D02102945046FEF76EFB9DF80C0008
:10351000682831D18DF810605046FFF7BFFF8DF855
:10352000106004AE0096CDE9015401236B22D02136
:103530005046FEF755FC8DF810900096CDE90154E9
:1035400001231922D0215046FEF74AFC8DF8107055
:103550000096CDE9015401231C22D0215046FEF7EC
:103560003FFC8DF810800096CDE9015401231B2209
:10357000D0215046FEF734FC9DF80C0006B0BDE8A3
:10358000F0870000F0B500202DED028B85B01546C8
:103590000C46039004904FF47A72062103A88DE83C
:1035A000070001234322D0212A48FEF71DFBBDF866
:1035B0000E10BDF80C0049BA0FB2BDF8101040BA99
:1035C00049BA00B20EB215B1012D07D029E001F0C1
:1035D00008FC41EC100B9FED208B05E001F001FC95
:1035E00041EC100B9FED1E8B51EC100B53EC182B84
:1035F00001F034FA01F0ECF92060384601F0F1FBFB
:1036000053EC182B01F02AFA01F0E2F96060304621
:1036100001F0E7FB53EC182B01F020FA01F0D8F988
:10362000A0609DF80C0078B99DF80D0060B99DF878
:103630000E0048B99DF80F0030B99DF8100018B978
:103640009DF81100002800D0012005B0BDEC028BD0
:10365000F0BD00004001002000000000006060405C
:1036600000000000006050402DE9F04387B01421B5
:103670006846FCF78BFE2F480024016841F00401E6
:103680000160016801F004010591016841F08001C9
:103690000160016801F080010591016841F00101BC
:1036A0000160016801F001010591016841F002012A
:1036B00001600068DFF8808000F002004FF40055E0
:1036C0000590002229464046FEF7C9F90122DFF89D
:1036D0006C90960231464846FEF7C1F94FF47047A8
:1036E000002239464846FEF7BAF900950125CDE992
:1036F0000154694640460394FEF7E8F8E8038DE874
:10370000310069464046FEF7E1F80320CDE902406A
:10371000CDE9006569464846FEF7D8F80097CDE93F
:103720000154694648460394FEF7D0F807B0BDE857
:10373000F0830000303802400008024000040240DC
:103740000D4810B50B4901600C49416000214FF450
:1037500080428160C0E9031241618161C1610162FF
:10376000FEF788F9002803D0BDE81040FEF788B8BE
:1037700010BD00000054004040010020801A0600E7
:1037800010B586B000241648009401940294039466
:1037900004944FF08041059401604AF20F41C0E962
:1037A00001140921C0E903148461FEF730FF08B158
:1037B000FEF766F84FF48050009069460848FEF71F
:1037C0006EFF08B1FEF75CF8049404A90448059460
:1037D000FEF7FCFE002801D0FEF752F806B010BD3F
:1037E0009401002010B58CB024216846FCF7CEFD72
:1037F00000241648099414490A94C0E900144FF6AD
:10380000FF71C0E90241046184610320009001AAB4
:103810000220012182E81300CDE90440CDE906141D
:1038200069460A480894FEF7A5FF08B1FEF728F894
:10383000099409A905480A94FEF7C8FE002801D09A
:10384000FEF71EF80CB010BD00040040D4010020AB
:1038500010B58CB024216846FCF798FD002416486A
:10386000099414490A94C0E900144FF6FF71C0E9A5
:103870000241046184610320CDE900040120CDE907
:1038800002040221CDE90441CDE9060469460A4853
:103890000894FEF76FFF08B1FDF7F2FF099409A93C
:1038A00005480A94FEF792FE002801D0FDF7E8FFD4
:1038B0000CB010BD000800401402002010B588B004
:1038C0001C216846FCF762FD16481549002401607A
:1038D0001421C0E9011449F63F41C0E90314846191
:1038E000FFF747F908B1FDF7CBFF6020CDE90004F1
:1038F0000294002269460B480494FFF7D2F808B1FD
:10390000FDF7BEFF042269460648FFF7CAF808B172
:10391000FDF7B6FF0348FFF799F808B010BD0000A7
:1039200000400140540200200C4810B50A490160D3
:103930004FF416514160002181600C22C160C0E942
:1039400004128161C161FFF7C9FA002803D0BDE804
:103950001040FDF795BF10BD0010014094020020FB
:10396000FEE7704770477047FEF708BB30B593B06D
:1039700030216846FCF70AFD14210CA8FCF706FD6F
:1039800019480025016841F080510160006800F08D
:10399000805011901548016821F4404141F40041E4
:1039A00001600068022400F4404011900120009062
:1039B000000401908001CDE9064019200890A8205C
:1039C000CDE9090404200B906846FEF75BFC0CA9C6
:1039D0000F2081E83100E002CDE90F0502210CA89B
:1039E000FEF766FB13B030BD403802400070004067
:1039F0001048016841F4700101600F48016841F00E
:103A0000010101600C4A00210832116002680B4B71
:103A10001A400260031D0A4A1A60026822F48022DA
:103A2000026005480C300160024958068039086080
:103A30007047000088ED00E000380240FFFFF6FE0E
:103A4000103000240148FEF74EBF00009401002012
:103A5000F0B502681D4B1E4C9F031E4D1E4E984232
:103A600007D0B84205D0A04203D0A84201D0B0424E
:103A700004D122F0700C4A6842EA0C02984210D03D
:103A8000B8420ED0A0420CD0A8420AD0B04208D012
:103A9000124CA04205D0124CA04202D0114CA042C0
:103AA00003D122F44074CA6822434C6922F0800298
:103AB000224302608A68C2620A688262984201D127
:103AC0000969016301214161F0BD0000000001406E
:103AD0000004004000080040000C0040004001408D
:103AE000004401400048014010B501F01F030121CE
:103AF000046A99408C430462016A9A40114301624E
:103B000010BD10B5846842EA032224F47F440A43BE
:103B10002243826010BD826822F070020A4342F0A4
:103B2000070181607047000030B5026A22F001028F
:103B30000262026A4368846924F073050C682C43AE
:103B400022F002058A682A430A4DA8420BD122F0CE
:103B50000805CA6823F440732A434D6922F0040221
:103B60001D438B692B434360846149684163026252
:103B700030BD00000000014030B5026A22F01002A2
:103B80000262026A436884690D6824F4E64444EAE8
:103B900005248D6822F0200242EA05120B4DA8424E
:103BA0000ED1CD6822F0800242EA05124D6923F45D
:103BB000406343EA85038D6922F0400243EA8503AE
:103BC0004360846149688163026230BD0000014046
:103BD00030B5026A22F480720262036A4268C469E4
:103BE00023F4007324F073050C682C438D6843EABA
:103BF00005230C4DA8420ED1CD6823F4006343EA9F
:103C000005234D6922F4405242EA05128D6923F4DE
:103C1000806342EA05124260C4614968C16303627D
:103C200030BD00000000014030B5026A22F480522D
:103C30000262046A4268C3690D6823F4E64343EAFA
:103C400005238D6824F4005444EA0534064DA84247
:103C500004D14D6922F4804242EA85124260C36178
:103C600049680164046230BD0000014010B5036A78
:103C7000046A24F001040462846924F0F00444EA34
:103C8000021423F00A020A438461026210BD10B5D7
:103C9000036A23F0100303628369046A23F4704308
:103CA00043EA023224F0A00343EA01118261016277
:103CB00010BD10B5806B0021C185C184FFF785F868
:103CC00010BD0168CA6822F49072CA6001684A692E
:103CD00022F001024A61202180F83A10704710B5A5
:103CE00090F83A10222901D0022010BD8168B1F568
:103CF000805F11D00169002901681FD0496801F077
:103D00007F03816A4A1C82620B70C18D491E0904BF
:103D1000090CC18518D02BE00269816A002A02686B
:103D2000526805D0D2B20A80816A491C8162ECE7F0
:103D3000C2F308020A80816A891CF7E74A68816A2F
:103D40004B1C83620A70E0E70168CA6822F0200217
:103D5000CA600168CA6822F48072CA6001684A6950
:103D600022F001024A61202180F83A10FFF750F951
:103D7000002010BD2DE9F041044600680169E268A9
:103D800021F44051114301612169A068E2690843AF
:103D90006169114322680843D16849F20C63994371
:103DA0000143D16020684169A26921F44071114347
:103DB0004161E2696425B2F5004F9748974922684E
:103DC0004FF032083FD08A4201D082427CD1FEF7C8
:103DD00017FA00EBC00101EB001061688900B0FB2D
:103DE000F1F6FEF70DFA00EBC00101EB001061687F
:103DF0008900B0FBF1F0B0FBF5F06FF0180148431B
:103E000006EB800108EB0110B0FBF5F000F0F006C6
:103E1000FEF7F6F900EBC00101EB001061688900C4
:103E2000B0FBF1F0B0FBF5F006EB0016FEF7E8F999
:103E300000EBC00101EB001061688900B0FBF1F7F5
:103E4000FEF7DEF9D2E08A4201D082423DD1FEF790
:103E5000D7F900EBC00101EB001061684900B0FB2D
:103E6000F1F0B0FBF5F00601FEF7CAF900EBC00176
:103E700001EB001061684900B0FBF1F7FEF7C0F9F3
:103E800000EBC00101EB001061684900B0FBF1F0EC
:103E9000B0FBF5F06FF01801484307EB800108EB29
:103EA000C100B0FBF5F000F0F80006EB4006FEF7AD
:103EB000A7F900EBC00101EB001061684900B0FBFD
:103EC000F1F7FEF79DF93CE055E0FEF789F900EBCC
:103ED000C00101EB001061684900B0FBF1F0B0FBDC
:103EE000F5F00601FEF77CF900EBC00101EB0010D4
:103EF00061684900B0FBF1F7FEF772F900EBC00111
:103F000001EB001061684900B0FBF1F0B0FBF5F087
:103F10006FF01801484307EB800108EBC100B0FBCC
:103F2000F5F000F0F80006EB4006FEF759F900EB5B
:103F3000C00101EB001061684900B0FBF1F7FEF72A
:103F40004FF900EBC00101EB001061684900B0FBC4
:103F5000F1F0B0FBF5F06FF01801484307EB80017A
:103F600008EBC100B0FBF5F000F007002168304419
:103F70008860BDE8F081FEF733F900EBC00101EB8A
:103F8000001061688900B0FBF1F6FEF729F900EB3B
:103F9000C00101EB001061688900B0FBF1F0B0FBDB
:103FA000F5F06FF01801484306EB800108EB0110B3
:103FB000B0FBF5F000F0F006FEF712F900EBC001DF
:103FC00001EB001061688900B0FBF1F0B0FBF5F087
:103FD00006EB0016FEF704F900EBC00101EB001040
:103FE00061688900B0FBF1F7FEF7FAF800EBC00159
:103FF00001EB001061688900B0FBF1F0B0FBF5F057
:104000006FF01801484307EB800108EB0110B0FB8B
:10401000F5F000F00F00A9E7001401400010014086
:1040200090F83910212901D0022070478168B1F53C
:10403000805F016A0BD04A1C0262026809785160F5
:10404000C18C491E0904090CC1840ED017E00988EF
:104050000268C1F30801516001690029016A02D0B8
:10406000491C0162ECE7891CFBE70168CA6822F081
:104070008002CA600068C16841F04001C160002050
:10408000704700000148FEF7A1BE00009402002026
:10409000FEE70907090E002804DB00F1E02080F8A4
:1040A0000014704700F00F0000F1E02080F8141DAC
:1040B000704700000000000030B52DED048B81B08A
:1040C000B0EE408AF0EE608A6A4651EC180B00F0C0
:1040D00087F900989FED329B7E300090002821DC0C
:1040E00053EC192B51EC180B00F010FE1AD00021E4
:1040F00040F608004FF00000044651EC180B00F0A9
:1041000067FC08EE100A40F6080004EA00014FF0D0
:104110000000B5EEC08AF1EE10FA04BF0220FCF7F1
:1041200064F92DE00098FF2830DB002108464FF0AD
:10413000000000F4400553EC192B51EC180B00F073
:10414000A1FF8CBF002401240220FCF74EF99FED53
:10415000168A4DB1002C0CBF4FF400004FF48000C4
:10416000A84218BF9FED118A042108464FF00000B5
:10417000002C01BFB1EE480A01B0BDEC048B30BD8C
:10418000B0EE480A01B0BDEC048B30BD51EC180B09
:1041900000F01EFC01B000EE100ABDEC048B30BD37
:1041A00000000000000000000000807FFFFF7F7F14
:1041B00030B583B00446FCF713F99FED090B0546B3
:1041C0008DED000B002221466846FCF733F92846A6
:1041D000FCF70BF99DED000B03B030BD00000000B3
:1041E000000000000000000030B540F2FF742DED2B
:1041F000048BF0EE608A18EE901A85B0B0EE408A1B
:104200009FED2B9B05468DED008B34EA115147D075
:1042100053EC192B51EC180B00F078FD40D02A46D6
:1042200051EC180B00F0A3FF41EC180B18EE900AAC
:104230008DED008B34EA10501CD053EC192B51EC4F
:10424000180B00F063FD2BD10220FCF7CEF800F034
:1042500043F810EE901A18EE900A8DED020B8DEDDA
:10426000008B61F31E0003909DED020B05B0BDECC9
:10427000048B30BD0220FCF7B8F800F01DF810EEFA
:10428000901A18EE900A8DED020B8DED008B61F304
:104290001E0003909DED020B05B0BDEC048B30BDFC
:1042A00005B0B0EE480AF0EE680ABDEC048B30BDF4
:1042B00000000000000000009FED050B10B553EC5E
:1042C000102B51EC100B00F0DFFD41EC100B10BD7A
:1042D00000000000000000709FED050B10B553ECCE
:1042E000102B51EC100B00F0CFFD41EC100B10BD6A
:1042F000000000000000001010B5044691ED000B16
:10430000FFF7DAFE84ED000A10BD10B5044690ED0B
:10431000000B0846FFF768FF84ED000B10BD303836
:104320000A2801D2012070470020704730B5264886
:10433000B0F90630254A002143F69824002B08DA0C
:10434000B0F90830A34204DD43885B1C4380136846
:104350005962B0F90A501D4B4033002D08DAB0F90C
:104360000C50A54204DD8488641C84801C68616252
:10437000B0F90650164C002D08DDB0F90850A542E2
:1043800004DA45886D1E458012685162B0F90A2032
:10439000002A08DDB0F90C20A24204DA8288521EFD
:1043A00082801A685162B0F90610B0F9022001EB60
:1043B000C231084A1160B0F90A10B0F9040001EBEB
:1043C000C0300549086030BD30000020D401002015
:1043D00068C5FFFF1800002020000020000000003A
:1043E00010B582B01446CDE900010023009A236085
:1043F000194B21F0004098422ADA024328D0B0F548
:10440000801FA8BF226810DA9FED150B53EC102B0C
:104410009DED000B51EC100B00F036FDCDE90001D5
:104420006FF0350221F0004022600F4B6FF31E51F8
:1044300003EB20501044206041F0FF5040F000504A
:1044400001909DED000B00BF02B051EC100B10BDB0
:104450009DED000BF8E700000000F07F0000000079
:10446000000000000000504302FCFFFF70B5401A3E
:10447000411C114D4FF4806403290AD200210846E3
:1044800000F01EFA002221462846FDF7E8FA012036
:1044900070BD0A4A5342022802DB1146184601E069
:1044A0001946104600F00CFA012221462846FDF775
:1044B000D6FA002070BD000000040240F0D8FFFFD3
:1044C00070B5104C104DE060401AC7304FF4806456
:1044D000B0F5C77F0AD80021084600F0F1F90022A4
:1044E00021462846FDF7BBFA012070BD194610464B
:1044F00000F0E6F9012221462846FDF7B0FA002037
:1045000070BD00007C0000200004024080EC030A23
:1045100070470000FDF73AFDFFF728FAFFF7A4F80F
:10452000FFF7CCF9FFF70CF9FFF72AF9FFF75AF973
:10453000FFF78EF9FFF7F8F94F48FEF79FF80421CF
:104540004E48FEF7B5F904214D48FEF7B1F90122B6
:104550004C494D48FEF732FD00214C48FEF73AFB2E
:1045600004214A48FEF736FB494E42F210709FED97
:10457000490ADFED490AF06006F11C0886EC020AE0
:10458000F2EE040AC6ED020A0027C8F80C7088EDA6
:10459000000A9FED420A06F1380088ED010A9FEDFE
:1045A000400AC76080ED000A9FED3E0A9FED3F1A6A
:1045B00080ED010A9FED3C0AF7EE000A80ED020A49
:1045C000B7EE000A5038FFF7A1FF012300220721B0
:1045D0003748FEF784FF2B4D4FF4FA7BED1EA87091
:1045E0005846FDF761F9FEF765FD58B1072000F068
:1045F000F9F8002000F0D2F8052000F0A9F8032017
:1046000000F038F9224CDFF8ACA04FF40049B83480
:10461000287838B3606860B1D8F81830B26960683B
:104620006968FFF74DFF0028F6D06760584600F034
:104630006BF8206880B1206895ED020A00B2BDEEEB
:10464000C00A10EE101A09B2FFF710FF0028F2D0CE
:104650002760584600F058F8012291021648FDF7ED
:10466000FEF9D7E749465046FDF7F4F90028CFD1C7
:1046700001212970CEE7000094010020D401002020
:104680001402002017000020940200205402002091
:104690007C0000200000C8420AD7A33B00007A44F7
:1046A0000000FA4400004843000000000AD7233C01
:1046B00040010020000802400004024001EE900A80
:1046C000F8EEE11A20EE210ABDEEC00A10EE103A13
:1046D00000EE102AF8EEC01A00EE100A401AB8EEEA
:1046E000C00A40EE801ABDEEE10A10EE102A00EE7C
:1046F000100A9918B8EEC00A20EE010ABDEEC00AF1
:1047000010EE100A0844704710B5FDF7CDF80A48BE
:104710009FED080A094980ED000A00200880084939
:10472000086008490860084909684862074909683B
:10473000486210BD00000000240000202C00002072
:104740001800002020000020D401002014020020C6
:104750002DE9FF41012503AE4FF47A740096CDE9AF
:10476000015407462B4600223C210B48FDF73CFA3A
:104770009DF80C00009600F0E30040EA87008DF8F9
:104780000C00CDE90154012302223C210248FDF72F
:1047900027FBBDE8FF810000400100202DE9FF411B
:1047A000012503AE4FF47A740096CDE90154074613
:1047B0002B4602223C210A48FDF716FA9DF80C0010
:1047C000009600F0FC0038438DF80C00CDE9015450
:1047D000012302223C210248FDF702FBBDE8FF81D4
:1047E000400100201FB5194908280CD2DFE800F06D
:1047F00004071B1E2124272A9FED150A01E09FEDC7
:10480000150A81ED000A40018DF80C0001214FF4DA
:104810007A7203A88DE807000B460A463C210E4831
:10482000FDF7DEFA1FBD9FED0D0AEAE79FED0C0ACA
:10483000E7E79FED0C0AE4E79FED0B0AE1E79FED48
:104840000B0ADEE79FED0A0ADBE70000000000200C
:104850000681953D1F856B3F40010020F6289C3F57
:104860005C8FC23FAE4711400AD7234085EB4140E1
:1048700033338B402DE9FF41012503AE4FF47A74A9
:104880000096CDE9015407462B4600223C210B48F7
:10489000FDF7AAF99DF80C00009600F09F0040EA91
:1048A00047108DF80C00CDE90154012300223C2172
:1048B0000248FDF795FABDE8FF81000040010020A5
:1048C0002DE9F0410C46294905464A42884201DA61
:1048D0000D4602E0954200DD15460846244E254F60
:1048E0004FF400514FF48058844201DA044605E049
:1048F000944201DD14460EE0002C0CDA0022304612
:10490000FDF7ADF8012241463046FDF7A8F83968B9
:10491000604248630AE001223046FDF7A0F8002219
:1049200041463046FDF79BF8386844634FF4004138
:104930004C10002D0DDA00223046FDF790F80122D0
:1049400021463046FDF78BF8396868428863BDE838
:10495000F08101223046FDF782F8002221463046E0
:10496000FDF77DF838688563F1E70000C063FFFF5D
:10497000000402405402002010B500290AD0087833
:10498000002807D005487844FCF7AEF8002801D08D
:10499000002010BD0248784410BD00005E090000F0
:1049A0005609000010B500290AD00878002807D061
:1049B00005487844FCF798F8002801D0002010BD85
:1049C0000248784410BD00004E090000460900006E
:1049D00021F00042A2F16052B2F5801F01F00043C5
:1049E00028BFD2F17F6C0BD95FEA001C43EAC202F8
:1049F00042EB507018BF704728BF20F0010070478D
:104A0000B2F5801FBCBF184670474FEA410C1CF539
:104A1000001F02D2084600F070BB70B500F0DEFA4D
:104A200000000089FFF7F6BF4FF00040A0F58000BE
:104A30007047000002494FF0000000F066BB00BF65
:104A40000000F87F491058BFC1F140415B1058BFCA
:104A5000C3F140438B42EFF3008070472DE9C04122
:104A600030B4DFF8A0C23CEA111418BF3CEA1314BA
:104A700000F0EC8081EA03051CEA111444EAD574C5
:104A800018BF1CEA131500F0C780A4EB05044FF013
:104A9000004545EAC12145EAC32341EA505143EAB2
:104AA000525304F17F74994204F500344FEAC02058
:104AB0004FEAC22208BF904200F09C804FEA136583
:104AC0000FF24016765D4FEA134506FB05F7C7F176
:104AD000807706FB07F74FEAD737A7FB03687642D4
:104AE000C8F58038A7FB06CE38BFA8F1010807FB40
:104AF00008E64FF0000EA6FB028CE6FB03CEDCF1CD
:104B0000000CCEF1004E38BFAEF1010EA6FB0C58E2
:104B10004FF000074FF00005E6FB0E87A1FB08C62B
:104B2000A0FB07CE16EB0E0645F10005E1FB07657D
:104B300015F1E04E7EBFA4F580345FEA46066D4174
:104B400016F1800745F100054FEA17274FEA066680
:104B500047EA0567A6F1DE46B6F1805F4FEA152504
:104B60001FD9384624F0010C05EBC471BCF1FE6F6F
:104B700001EB0C1102D8F0BCBDE8008124425CBFFF
:104B800001F5801E9EEAC47F02D4F0BCBDE800811E
:104B9000244238D4F0BCA1F1C041BDE8004100F08E
:104BA0006BBA4FEAD22242EA43524FEAD323A7FB21
:104BB00002864FEAD02040EA415007FB03661EEA16
:104BC0000E0F4FEAD12105FB026658BFA6EB005637
:104BD000B6EB00564FEA520E4EEAC37E18EB0E0EAD
:104BE00056EB530EBDD518EB02085E417F1C55F104
:104BF0000005B6E74FF480154FF000074FF00006B0
:104C00004FF00008ADE7F0BC4FF0000001F1C041EB
:104C100001F00041BDE8008111EA0C1F0CEA1315F8
:104C200000D00CE013EA0C1F00F025804FF00000CC
:104C3000F0BC81EA030101F00041BDE80081F0BC55
:104C4000BDE8004181EA030100F016BAF0BCBDE8FE
:104C5000004170B500F0C2F9097EFC3E00F007B8D3
:104C600081EA03014FF0000001F00041704781EA42
:104C7000030100F001BAF0BCBDE800414FF00000B4
:104C800021497047FFFDFBF9F7F5F4F2F0EEEDEB8B
:104C9000E9E8E6E4E3E1E0DEDDDBDAD8D7D5D4D33A
:104CA000D1D0CFCDCCCBCAC8C7C6C5C4C2C1C0BF86
:104CB000BEBDBCBBBAB9B8B7B6B5B4B3B2B1B0AF8C
:104CC000AEADACABAAA9A8A8A7A6A5A4A3A3A2A170
:104CD000A09F9F9E9D9C9C9B9A999998979796952B
:104CE00095949393929191908F8F8E8E8D8C8C8BC7
:104CF0008B8A89898888878786858584848383824F
:104D0000828181800000FF070000F87F51EA030CD8
:104D100017D41CF5801F58BFBCF5801F00F106801A
:104D2000994218BF704708BF9042704707D711F5E6
:104D3000801F58BF13F5801F19D4994270478942CC
:104D400070471CF5801F08D5BCF5801FF7D58B4236
:104D500018BF704708BF824270474FF4001C1CEB1D
:104D6000410F38BF1CEB430F01D28B42704770B527
:104D700000F034F9922449004FF000514FF0805375
:104D8000FFF760BE4FEA41034FEA5353A3F5806338
:104D9000D3F11E03C8BFD3F1210C0CDD4FF000424C
:104DA00042EAC12242EA505232FA03FC8CEAE17C28
:104DB000ACEBE1707047102BC4BF0020704703F5C7
:104DC000787CBCF1FF3F04D06FF0004282EA210002
:104DD000704770B500F002F94992248000207047B6
:104DE000F2E710F0004248BF4042B0FA80F310FAF8
:104DF00003F10AD0C3F11D0303F580634FEA41506C
:104E000002EB035202EBD12170474FF000007047D4
:104E100051EA030C17D41CF5801F58BFBCF5801F46
:104E200000F10680994218BF704708BF9042704752
:104E300007D711F5801F58BF13F5801F19D4994269
:104E40007047894270471CF5801F08D5BCF5801F4C
:104E5000F7D58B4218BF704708BF824270474FF4A6
:104E6000001C1CEB410F38BF1CEB430F01D28B42DF
:104E7000704770B500F0B2F8922449004FF000512D
:104E80004FF08053FFF7DEBDDFF848C170B51CEA74
:104E9000111E1EBF1CEA13159EEA0C0F95EA0C0F9B
:104EA00000F06F8081EA030423EA4C134EEAD47EBB
:104EB00021EA4C1141F4801143F48013AE44A1FB6C
:104EC000024CA0FB0365AEF17F7E361955EB0C0555
:104ED000A1FB034C4CF10003A0FB021C16EB0C06DB
:104EE000654153F10003094218BF46F0010613F46F
:104EF000007F0BD14FEA03314FEA0530340341EA1A
:104F0000155140EA16506FF003020AE04FEAC32140
:104F10004FEAC520F40241EA555140EA56506FF07D
:104F2000020202EB2E4201EB025585EACE710AD055
:104F30005FEA440C18BF24F0004450F1000041F136
:104F4000000120EAD47040F2FE7C624500D270BDC0
:104F5000A84214BF4FF080444FF04044002E08BFD9
:104F60000024BEF1806FA8BFA1F1C041BDE8704030
:104F700080F282804FF0000001F1C04101F0004159
:104F800070479EEA0C0F0CEA131518BF95EA0C0F38
:104F900006D04FF0000081EA030E0EF0004170BD14
:104FA00000F01CF88900013E00F007B800F009B8D5
:104FB0004FEA430C5FEA5C5C08D081EA030100F031
:104FC0005BB84FEA410C5FEA5C5CF6D14FF0000041
:104FD000014970470000FF070000F87F0EF1020E44
:104FE0002EF0030E5EF8046B364205D4012A43EB23
:104FF000030515F5001F12D8012841EB010C1CF523
:10500000001F0CD80ED14FEAD17C15F5001F0CEB18
:105010004C0C0CF1020C08BF4CEBD37C04E04FF0BD
:10502000080C01E04FEAD37C0CEB4C0526FA05F6A0
:1050300006F00706B6F1040C06D20EEB860CBDE8AE
:1050400070404CF0010C6047DFE80CF0090B0202E5
:105050004FF000414FF00000A1F5002170BD19464E
:105060001046012851EB010418BFD4F5001484BF89
:10507000002001F0004170BD0808A0F500114FEAC2
:105080003101704753EA010C17D41CF5801F58BF3B
:10509000BCF5801F00F106808B4218BF704708BF27
:1050A0008242704707D713F5801F58BF11F5801F44
:1050B00019D48B4270479B4270471CF5801F08D55E
:1050C000BCF5801FF7D5994218BF704708BF9042C2
:1050D00070474FF4001C1CEB430F38BF1CEB410F13
:1050E00001D2994270470FB40CBC03BCFFF7C1BE9C
:1050F0004FF04070E1EE100A7047FF2141EAD050B6
:10510000C00570474FF0000070470CF00F03092BEB
:1051100008BF082000F05F800A2B0BD0082B18BFB7
:10512000704708BF1CF0400F0AD04FF000004FF04E
:10513000000170471CF0400F18BF4FF0004070474F
:105140001CF0100F08D020F0704300F07F4242EABC
:10515000D3014FEA4370704700F0604021F07F4276
:1051600042EA000201F07F4040EA727070474FF05F
:10517000FF0C4CF4E06C1CEA11531CBF9CEA030CBE
:105180009445C2BFDA4201EB02517047002B0DD0AB
:10519000BCF1000F0FD0002A01F00041A4BF41F084
:1051A000E04141F07F614FF00000704701F00041A5
:1051B0004FF00000704750EA01334FF09B0C18BFCE
:1051C0004CF0806C7FF436AC7047FBF72DBBFBF7DF
:1051D00047BDFBF7D5BE1CF4801F11D01CF4E02F97
:1051E00003D06FEACC31490070474FF04050EFF3E5
:1051F000008222F0704242EA000282F30088704787
:105200004FF00000704700000000000000000102A5
:10521000030406070809000000000102030400005F
:1052200002400000000000A0000000000540000057
:10523000000000C8000000000C4000000000409C7E
:1052400000000000194000000020BCBE000000006B
:1052500034400000BFC91B8E00000004B5400000B0
:10526000504BCFD06607E2CF010000006C41000038
:105270003E8251AADFEEA73401000000D9420000AF
:10528000DCB5A0E23A301F97FFFFFFFFB4450000F6
:10529000FD25A0C8E9A3C14FFFFFFFFFFF3F0000AE
:1052A0000000008000000000FF3F000000000080C0
:1052B000000000001054000800000020580000000A
:1052C000D00100086854000858000020E0080000E1
:1052D000EC010008000000000000F07FFFFFFFFF6E
:1052E000FFFFEF7F1C00000043000000F8FFFFFFFE
:1052F0000C0000000E0000000F0000002E00000057
:105300001001000043000000F8FFFFFF0040404094
:105310004040404040404141414141404040404088
:105320004040404040404040404040404005020234
:1053300002020202020202020202020202202020F3
:10534000202020202020200202020202020290904F
:10535000909090901010101010101010101010104D
:1053600010101010101010100202020202028888A1
:1053700088888888080808080808080808080808AD
:105380000808080808080808020202024000000095
:10539000000000000000000000000000000000000D
:1053A00000000000000000000000000000000000FD
:1053B00000000000000000000000000000000000ED
:1053C00000000000000000000000000000000000DD
:1053D00000000000000000000000000000000000CD
:1053E00000000000000000000000000000000000BD
:1053F00000000000000000000000000000000000AD
:10540000000000000000000000000000000000009C
:10541000000000000000000000000000000000008C
:10542000000000000000000000000000000000007C
:10543000000000000000000000000000000000006C
:10544000000000000000000000000000000000005C
:10545000000000000100000010000000000000003B
:085460000024F400000000002C
:040000050800019559
:00000001FF
